{
  "contractName": "AkropolisToken",
  "abi": [
    {
      "constant": true,
      "inputs": [],
      "name": "totalSupply",
      "outputs": [
        {
          "name": "",
          "type": "uint256"
        }
      ],
      "payable": false,
      "stateMutability": "view",
      "type": "function"
    },
    {
      "constant": true,
      "inputs": [],
      "name": "allowances",
      "outputs": [
        {
          "name": "",
          "type": "address"
        }
      ],
      "payable": false,
      "stateMutability": "view",
      "type": "function"
    },
    {
      "constant": false,
      "inputs": [],
      "name": "unpause",
      "outputs": [],
      "payable": false,
      "stateMutability": "nonpayable",
      "type": "function"
    },
    {
      "constant": false,
      "inputs": [],
      "name": "claimOwnership",
      "outputs": [],
      "payable": false,
      "stateMutability": "nonpayable",
      "type": "function"
    },
    {
      "constant": true,
      "inputs": [],
      "name": "paused",
      "outputs": [
        {
          "name": "",
          "type": "bool"
        }
      ],
      "payable": false,
      "stateMutability": "view",
      "type": "function"
    },
    {
      "constant": false,
      "inputs": [
        {
          "name": "_address",
          "type": "address"
        }
      ],
      "name": "disableWhitelist",
      "outputs": [],
      "payable": false,
      "stateMutability": "nonpayable",
      "type": "function"
    },
    {
      "constant": true,
      "inputs": [
        {
          "name": "who",
          "type": "address"
        }
      ],
      "name": "balanceOf",
      "outputs": [
        {
          "name": "",
          "type": "uint256"
        }
      ],
      "payable": false,
      "stateMutability": "view",
      "type": "function"
    },
    {
      "constant": true,
      "inputs": [],
      "name": "balances",
      "outputs": [
        {
          "name": "",
          "type": "address"
        }
      ],
      "payable": false,
      "stateMutability": "view",
      "type": "function"
    },
    {
      "constant": false,
      "inputs": [],
      "name": "pause",
      "outputs": [],
      "payable": false,
      "stateMutability": "nonpayable",
      "type": "function"
    },
    {
      "constant": true,
      "inputs": [],
      "name": "isMethodEnabled",
      "outputs": [
        {
          "name": "",
          "type": "bool"
        }
      ],
      "payable": false,
      "stateMutability": "view",
      "type": "function"
    },
    {
      "constant": false,
      "inputs": [],
      "name": "claimBalanceOwnership",
      "outputs": [],
      "payable": false,
      "stateMutability": "nonpayable",
      "type": "function"
    },
    {
      "constant": true,
      "inputs": [],
      "name": "owner",
      "outputs": [
        {
          "name": "",
          "type": "address"
        }
      ],
      "payable": false,
      "stateMutability": "view",
      "type": "function"
    },
    {
      "constant": false,
      "inputs": [],
      "name": "claimAllowanceOwnership",
      "outputs": [],
      "payable": false,
      "stateMutability": "nonpayable",
      "type": "function"
    },
    {
      "constant": false,
      "inputs": [],
      "name": "unlock",
      "outputs": [],
      "payable": false,
      "stateMutability": "nonpayable",
      "type": "function"
    },
    {
      "constant": false,
      "inputs": [
        {
          "name": "_address",
          "type": "address"
        }
      ],
      "name": "enableWhitelist",
      "outputs": [],
      "payable": false,
      "stateMutability": "nonpayable",
      "type": "function"
    },
    {
      "constant": true,
      "inputs": [
        {
          "name": "owner",
          "type": "address"
        },
        {
          "name": "spender",
          "type": "address"
        }
      ],
      "name": "allowance",
      "outputs": [
        {
          "name": "",
          "type": "uint256"
        }
      ],
      "payable": false,
      "stateMutability": "view",
      "type": "function"
    },
    {
      "constant": true,
      "inputs": [],
      "name": "pendingOwner",
      "outputs": [
        {
          "name": "",
          "type": "address"
        }
      ],
      "payable": false,
      "stateMutability": "view",
      "type": "function"
    },
    {
      "constant": false,
      "inputs": [
        {
          "name": "_newOwner",
          "type": "address"
        }
      ],
      "name": "transferOwnership",
      "outputs": [],
      "payable": false,
      "stateMutability": "nonpayable",
      "type": "function"
    },
    {
      "constant": false,
      "inputs": [],
      "name": "lock",
      "outputs": [],
      "payable": false,
      "stateMutability": "nonpayable",
      "type": "function"
    },
    {
      "inputs": [
        {
          "name": "_balances",
          "type": "address"
        },
        {
          "name": "_allowances",
          "type": "address"
        }
      ],
      "payable": false,
      "stateMutability": "nonpayable",
      "type": "constructor"
    },
    {
      "anonymous": false,
      "inputs": [
        {
          "indexed": true,
          "name": "to",
          "type": "address"
        }
      ],
      "name": "EnableWhitelist",
      "type": "event"
    },
    {
      "anonymous": false,
      "inputs": [
        {
          "indexed": true,
          "name": "to",
          "type": "address"
        }
      ],
      "name": "DisableWhitelist",
      "type": "event"
    },
    {
      "anonymous": false,
      "inputs": [],
      "name": "Unlocked",
      "type": "event"
    },
    {
      "anonymous": false,
      "inputs": [],
      "name": "Locked",
      "type": "event"
    },
    {
      "anonymous": false,
      "inputs": [],
      "name": "Pause",
      "type": "event"
    },
    {
      "anonymous": false,
      "inputs": [],
      "name": "Unpause",
      "type": "event"
    },
    {
      "anonymous": false,
      "inputs": [
        {
          "indexed": true,
          "name": "to",
          "type": "address"
        },
        {
          "indexed": false,
          "name": "value",
          "type": "uint256"
        }
      ],
      "name": "Mint",
      "type": "event"
    },
    {
      "anonymous": false,
      "inputs": [
        {
          "indexed": true,
          "name": "burner",
          "type": "address"
        },
        {
          "indexed": false,
          "name": "value",
          "type": "uint256"
        }
      ],
      "name": "Burn",
      "type": "event"
    },
    {
      "anonymous": false,
      "inputs": [
        {
          "indexed": true,
          "name": "from",
          "type": "address"
        },
        {
          "indexed": true,
          "name": "to",
          "type": "address"
        },
        {
          "indexed": false,
          "name": "value",
          "type": "uint256"
        }
      ],
      "name": "Transfer",
      "type": "event"
    },
    {
      "anonymous": false,
      "inputs": [
        {
          "indexed": true,
          "name": "owner",
          "type": "address"
        },
        {
          "indexed": true,
          "name": "spender",
          "type": "address"
        },
        {
          "indexed": false,
          "name": "value",
          "type": "uint256"
        }
      ],
      "name": "Approval",
      "type": "event"
    },
    {
      "anonymous": false,
      "inputs": [
        {
          "indexed": true,
          "name": "previousOwner",
          "type": "address"
        },
        {
          "indexed": true,
          "name": "newOwner",
          "type": "address"
        }
      ],
      "name": "OwnershipTransferred",
      "type": "event"
    },
    {
      "constant": false,
      "inputs": [
        {
          "name": "_to",
          "type": "address"
        },
        {
          "name": "_amount",
          "type": "uint256"
        }
      ],
      "name": "mint",
      "outputs": [],
      "payable": false,
      "stateMutability": "nonpayable",
      "type": "function"
    },
    {
      "constant": false,
      "inputs": [
        {
          "name": "_amount",
          "type": "uint256"
        }
      ],
      "name": "burn",
      "outputs": [],
      "payable": false,
      "stateMutability": "nonpayable",
      "type": "function"
    },
    {
      "constant": false,
      "inputs": [
        {
          "name": "_spender",
          "type": "address"
        },
        {
          "name": "_value",
          "type": "uint256"
        }
      ],
      "name": "approve",
      "outputs": [
        {
          "name": "",
          "type": "bool"
        }
      ],
      "payable": false,
      "stateMutability": "nonpayable",
      "type": "function"
    },
    {
      "constant": false,
      "inputs": [
        {
          "name": "_spender",
          "type": "address"
        },
        {
          "name": "_addedValue",
          "type": "uint256"
        }
      ],
      "name": "increaseApproval",
      "outputs": [
        {
          "name": "",
          "type": "bool"
        }
      ],
      "payable": false,
      "stateMutability": "nonpayable",
      "type": "function"
    },
    {
      "constant": false,
      "inputs": [
        {
          "name": "_spender",
          "type": "address"
        },
        {
          "name": "_subtractedValue",
          "type": "uint256"
        }
      ],
      "name": "decreaseApproval",
      "outputs": [
        {
          "name": "",
          "type": "bool"
        }
      ],
      "payable": false,
      "stateMutability": "nonpayable",
      "type": "function"
    },
    {
      "constant": false,
      "inputs": [
        {
          "name": "_to",
          "type": "address"
        },
        {
          "name": "_amount",
          "type": "uint256"
        }
      ],
      "name": "transfer",
      "outputs": [
        {
          "name": "",
          "type": "bool"
        }
      ],
      "payable": false,
      "stateMutability": "nonpayable",
      "type": "function"
    },
    {
      "constant": false,
      "inputs": [
        {
          "name": "_from",
          "type": "address"
        },
        {
          "name": "_to",
          "type": "address"
        },
        {
          "name": "_amount",
          "type": "uint256"
        }
      ],
      "name": "transferFrom",
      "outputs": [
        {
          "name": "",
          "type": "bool"
        }
      ],
      "payable": false,
      "stateMutability": "nonpayable",
      "type": "function"
    }
  ],
  "bytecode": "0x60806040526000600360146101000a81548160ff0219169083151502179055506000600360156101000a81548160ff02191690831515021790555034801561004657600080fd5b50604051604080613756833981018060405281019080805190602001909291908051906020019092919050505081818181816000806101000a81548173ffffffffffffffffffffffffffffffffffffffff021916908373ffffffffffffffffffffffffffffffffffffffff16021790555080600160006101000a81548173ffffffffffffffffffffffffffffffffffffffff021916908373ffffffffffffffffffffffffffffffffffffffff160217905550505033600260006101000a81548173ffffffffffffffffffffffffffffffffffffffff021916908373ffffffffffffffffffffffffffffffffffffffff1602179055506000600360006101000a81548173ffffffffffffffffffffffffffffffffffffffff021916908373ffffffffffffffffffffffffffffffffffffffff160217905550505050506135c6806101906000396000f300608060405260043610610154576000357c0100000000000000000000000000000000000000000000000000000000900463ffffffff168063095ea7b31461015957806318160ddd146101be57806323b872dd146101e95780633ed10b921461026e5780633f4ba83a146102c557806340c10f19146102dc57806342966c68146103295780634e71e0c8146103565780635c975abb1461036d578063661884631461039c5780636e5cbede1461040157806370a08231146104445780637bb98a681461049b5780638456cb59146104f257806388fa2617146105095780638955ed7e146105385780638da5cb5b1461054f5780639b2bdc20146105a6578063a69df4b5146105bd578063a9059cbb146105d4578063d73dd62314610639578063dd2015df1461069e578063dd62ed3e146106e1578063e30c397814610758578063f2fde38b146107af578063f83d08ba146107f2575b600080fd5b34801561016557600080fd5b506101a4600480360381019080803573ffffffffffffffffffffffffffffffffffffffff16906020019092919080359060200190929190505050610809565b604051808215151515815260200191505060405180910390f35b3480156101ca57600080fd5b506101d36108a1565b6040518082815260200191505060405180910390f35b3480156101f557600080fd5b50610254600480360381019080803573ffffffffffffffffffffffffffffffffffffffff169060200190929190803573ffffffffffffffffffffffffffffffffffffffff16906020019092919080359060200190929190505050610968565b604051808215151515815260200191505060405180910390f35b34801561027a57600080fd5b50610283610aca565b604051808273ffffffffffffffffffffffffffffffffffffffff1673ffffffffffffffffffffffffffffffffffffffff16815260200191505060405180910390f35b3480156102d157600080fd5b506102da610af0565b005b3480156102e857600080fd5b50610327600480360381019080803573ffffffffffffffffffffffffffffffffffffffff16906020019092919080359060200190929190505050610c82565b005b34801561033557600080fd5b5061035460048036038101908080359060200190929190505050610d14565b005b34801561036257600080fd5b5061036b610da4565b005b34801561037957600080fd5b50610382610fae565b604051808215151515815260200191505060405180910390f35b3480156103a857600080fd5b506103e7600480360381019080803573ffffffffffffffffffffffffffffffffffffffff16906020019092919080359060200190929190505050610fc1565b604051808215151515815260200191505060405180910390f35b34801561040d57600080fd5b50610442600480360381019080803573ffffffffffffffffffffffffffffffffffffffff16906020019092919050505061105d565b005b34801561045057600080fd5b50610485600480360381019080803573ffffffffffffffffffffffffffffffffffffffff1690602001909291905050506111c0565b6040518082815260200191505060405180910390f35b3480156104a757600080fd5b506104b06112c0565b604051808273ffffffffffffffffffffffffffffffffffffffff1673ffffffffffffffffffffffffffffffffffffffff16815260200191505060405180910390f35b3480156104fe57600080fd5b506105076112e5565b005b34801561051557600080fd5b5061051e611478565b604051808215151515815260200191505060405180910390f35b34801561054457600080fd5b5061054d61148b565b005b34801561055b57600080fd5b5061056461152a565b604051808273ffffffffffffffffffffffffffffffffffffffff1673ffffffffffffffffffffffffffffffffffffffff16815260200191505060405180910390f35b3480156105b257600080fd5b506105bb611550565b005b3480156105c957600080fd5b506105d26115f0565b005b3480156105e057600080fd5b5061061f600480360381019080803573ffffffffffffffffffffffffffffffffffffffff169060200190929190803590602001909291905050506116fe565b604051808215151515815260200191505060405180910390f35b34801561064557600080fd5b50610684600480360381019080803573ffffffffffffffffffffffffffffffffffffffff1690602001909291908035906020019092919050505061185e565b604051808215151515815260200191505060405180910390f35b3480156106aa57600080fd5b506106df600480360381019080803573ffffffffffffffffffffffffffffffffffffffff1690602001909291905050506118fa565b005b3480156106ed57600080fd5b50610742600480360381019080803573ffffffffffffffffffffffffffffffffffffffff169060200190929190803573ffffffffffffffffffffffffffffffffffffffff169060200190929190505050611a5d565b6040518082815260200191505060405180910390f35b34801561076457600080fd5b5061076d611b93565b604051808273ffffffffffffffffffffffffffffffffffffffff1673ffffffffffffffffffffffffffffffffffffffff16815260200191505060405180910390f35b3480156107bb57600080fd5b506107f0600480360381019080803573ffffffffffffffffffffffffffffffffffffffff169060200190929190505050611bb9565b005b3480156107fe57600080fd5b50610807611d67565b005b6000600360149054906101000a900460ff16151515610890576040517f08c379a00000000000000000000000000000000000000000000000000000000081526004018080602001828103825260128152602001807f436f6e747261637420697320706175736564000000000000000000000000000081525060200191505060405180910390fd5b61089a8383611e75565b5092915050565b60008060009054906101000a900473ffffffffffffffffffffffffffffffffffffffff1673ffffffffffffffffffffffffffffffffffffffff166318160ddd6040518163ffffffff167c0100000000000000000000000000000000000000000000000000000000028152600401602060405180830381600087803b15801561092857600080fd5b505af115801561093c573d6000803e3d6000fd5b505050506040513d602081101561095257600080fd5b8101908080519060200190929190505050905090565b6000600360149054906101000a900460ff161515156109ef576040517f08c379a00000000000000000000000000000000000000000000000000000000081526004018080602001828103825260128152602001807f436f6e747261637420697320706175736564000000000000000000000000000081525060200191505060405180910390fd5b60011515600460003373ffffffffffffffffffffffffffffffffffffffff1673ffffffffffffffffffffffffffffffffffffffff16815260200190815260200160002060009054906101000a900460ff161515141515610ab7576040517f08c379a000000000000000000000000000000000000000000000000000000000815260040180806020018281038252601b8152602001807f41646472657373206973206e6f7420696e2077686974656c697374000000000081525060200191505060405180910390fd5b610ac2848484611ff7565b509392505050565b600160009054906101000a900473ffffffffffffffffffffffffffffffffffffffff1681565b600260009054906101000a900473ffffffffffffffffffffffffffffffffffffffff1673ffffffffffffffffffffffffffffffffffffffff163373ffffffffffffffffffffffffffffffffffffffff16141515610bb5576040517f08c379a00000000000000000000000000000000000000000000000000000000081526004018080602001828103825260148152602001807f4163636f756e74206973206e6f74206f776e657200000000000000000000000081525060200191505060405180910390fd5b600360149054906101000a900460ff161515610c39576040517f08c379a00000000000000000000000000000000000000000000000000000000081526004018080602001828103825260168152602001807f436f6e7472616374206973206e6f74207061757365640000000000000000000081525060200191505060405180910390fd5b6000600360146101000a81548160ff0219169083151502179055507f7805862f689e2f13df9f062ff482ad3ad112aca9e0847911ed832e158c525b3360405160405180910390a1565b600360159054906101000a900460ff161515610d06576040517f08c379a00000000000000000000000000000000000000000000000000000000081526004018080602001828103825260118152602001807f436f6e74616374206973206c6f636b656400000000000000000000000000000081525060200191505060405180910390fd5b610d1082826124d8565b5050565b600360159054906101000a900460ff161515610d98576040517f08c379a00000000000000000000000000000000000000000000000000000000081526004018080602001828103825260118152602001807f436f6e74616374206973206c6f636b656400000000000000000000000000000081525060200191505060405180910390fd5b610da1816125ab565b50565b600360009054906101000a900473ffffffffffffffffffffffffffffffffffffffff1673ffffffffffffffffffffffffffffffffffffffff163373ffffffffffffffffffffffffffffffffffffffff16141515610e69576040517f08c379a000000000000000000000000000000000000000000000000000000000815260040180806020018281038252601c8152602001807f4163636f756e74206973206e6f742070656e64696e67206f776e65720000000081525060200191505060405180910390fd5b600360009054906101000a900473ffffffffffffffffffffffffffffffffffffffff1673ffffffffffffffffffffffffffffffffffffffff16600260009054906101000a900473ffffffffffffffffffffffffffffffffffffffff1673ffffffffffffffffffffffffffffffffffffffff167f8be0079c531659141344cd1fd0a4f28419497f9722a3daafe3b4186f6b6457e060405160405180910390a3600360009054906101000a900473ffffffffffffffffffffffffffffffffffffffff16600260006101000a81548173ffffffffffffffffffffffffffffffffffffffff021916908373ffffffffffffffffffffffffffffffffffffffff1602179055506000600360006101000a81548173ffffffffffffffffffffffffffffffffffffffff021916908373ffffffffffffffffffffffffffffffffffffffff160217905550565b600360149054906101000a900460ff1681565b6000600360149054906101000a900460ff16151515611048576040517f08c379a00000000000000000000000000000000000000000000000000000000081526004018080602001828103825260128152602001807f436f6e747261637420697320706175736564000000000000000000000000000081525060200191505060405180910390fd5b6110538383336125b8565b6001905092915050565b600260009054906101000a900473ffffffffffffffffffffffffffffffffffffffff1673ffffffffffffffffffffffffffffffffffffffff163373ffffffffffffffffffffffffffffffffffffffff16141515611122576040517f08c379a00000000000000000000000000000000000000000000000000000000081526004018080602001828103825260148152602001807f4163636f756e74206973206e6f74206f776e657200000000000000000000000081525060200191505060405180910390fd5b6000600460008373ffffffffffffffffffffffffffffffffffffffff1673ffffffffffffffffffffffffffffffffffffffff16815260200190815260200160002060006101000a81548160ff0219169083151502179055508073ffffffffffffffffffffffffffffffffffffffff167f4cb4ccbf25d7615e514da37f73f1bd25b486774d97e8c32547ced232d67d789360405160405180910390a250565b60008060009054906101000a900473ffffffffffffffffffffffffffffffffffffffff1673ffffffffffffffffffffffffffffffffffffffff166370a08231836040518263ffffffff167c0100000000000000000000000000000000000000000000000000000000028152600401808273ffffffffffffffffffffffffffffffffffffffff1673ffffffffffffffffffffffffffffffffffffffff168152602001915050602060405180830381600087803b15801561127e57600080fd5b505af1158015611292573d6000803e3d6000fd5b505050506040513d60208110156112a857600080fd5b81019080805190602001909291905050509050919050565b6000809054906101000a900473ffffffffffffffffffffffffffffffffffffffff1681565b600260009054906101000a900473ffffffffffffffffffffffffffffffffffffffff1673ffffffffffffffffffffffffffffffffffffffff163373ffffffffffffffffffffffffffffffffffffffff161415156113aa576040517f08c379a00000000000000000000000000000000000000000000000000000000081526004018080602001828103825260148152602001807f4163636f756e74206973206e6f74206f776e657200000000000000000000000081525060200191505060405180910390fd5b600360149054906101000a900460ff1615151561142f576040517f08c379a00000000000000000000000000000000000000000000000000000000081526004018080602001828103825260128152602001807f436f6e747261637420697320706175736564000000000000000000000000000081525060200191505060405180910390fd5b6001600360146101000a81548160ff0219169083151502179055507f6985a02210a168e66602d3235cb6db0e70f92b3ba4d376a33c0f3d9434bff62560405160405180910390a1565b600360159054906101000a900460ff1681565b6000809054906101000a900473ffffffffffffffffffffffffffffffffffffffff1673ffffffffffffffffffffffffffffffffffffffff16634e71e0c86040518163ffffffff167c0100000000000000000000000000000000000000000000000000000000028152600401600060405180830381600087803b15801561151057600080fd5b505af1158015611524573d6000803e3d6000fd5b50505050565b600260009054906101000a900473ffffffffffffffffffffffffffffffffffffffff1681565b600160009054906101000a900473ffffffffffffffffffffffffffffffffffffffff1673ffffffffffffffffffffffffffffffffffffffff16634e71e0c86040518163ffffffff167c0100000000000000000000000000000000000000000000000000000000028152600401600060405180830381600087803b1580156115d657600080fd5b505af11580156115ea573d6000803e3d6000fd5b50505050565b600260009054906101000a900473ffffffffffffffffffffffffffffffffffffffff1673ffffffffffffffffffffffffffffffffffffffff163373ffffffffffffffffffffffffffffffffffffffff161415156116b5576040517f08c379a00000000000000000000000000000000000000000000000000000000081526004018080602001828103825260148152602001807f4163636f756e74206973206e6f74206f776e657200000000000000000000000081525060200191505060405180910390fd5b6001600360156101000a81548160ff0219169083151502179055507f19aad37188a1d3921e29eb3c66acf43d81975e107cb650d58cca878627955fd660405160405180910390a1565b6000600360149054906101000a900460ff16151515611785576040517f08c379a00000000000000000000000000000000000000000000000000000000081526004018080602001828103825260128152602001807f436f6e747261637420697320706175736564000000000000000000000000000081525060200191505060405180910390fd5b60011515600460003373ffffffffffffffffffffffffffffffffffffffff1673ffffffffffffffffffffffffffffffffffffffff16815260200190815260200160002060009054906101000a900460ff16151514151561184d576040517f08c379a000000000000000000000000000000000000000000000000000000000815260040180806020018281038252601b8152602001807f41646472657373206973206e6f7420696e2077686974656c697374000000000081525060200191505060405180910390fd5b6118578383612aaf565b5092915050565b6000600360149054906101000a900460ff161515156118e5576040517f08c379a00000000000000000000000000000000000000000000000000000000081526004018080602001828103825260128152602001807f436f6e747261637420697320706175736564000000000000000000000000000081525060200191505060405180910390fd5b6118f0838333612dfc565b6001905092915050565b600260009054906101000a900473ffffffffffffffffffffffffffffffffffffffff1673ffffffffffffffffffffffffffffffffffffffff163373ffffffffffffffffffffffffffffffffffffffff161415156119bf576040517f08c379a00000000000000000000000000000000000000000000000000000000081526004018080602001828103825260148152602001807f4163636f756e74206973206e6f74206f776e657200000000000000000000000081525060200191505060405180910390fd5b6001600460008373ffffffffffffffffffffffffffffffffffffffff1673ffffffffffffffffffffffffffffffffffffffff16815260200190815260200160002060006101000a81548160ff0219169083151502179055508073ffffffffffffffffffffffffffffffffffffffff167ff0a9b31ec3c93ea62ed427eb0af11c963c18e601f4a30f7b070f90f2deddff5460405160405180910390a250565b6000600160009054906101000a900473ffffffffffffffffffffffffffffffffffffffff1673ffffffffffffffffffffffffffffffffffffffff16631a46ec8284846040518363ffffffff167c0100000000000000000000000000000000000000000000000000000000028152600401808373ffffffffffffffffffffffffffffffffffffffff1673ffffffffffffffffffffffffffffffffffffffff1681526020018273ffffffffffffffffffffffffffffffffffffffff1673ffffffffffffffffffffffffffffffffffffffff16815260200192505050602060405180830381600087803b158015611b5057600080fd5b505af1158015611b64573d6000803e3d6000fd5b505050506040513d6020811015611b7a57600080fd5b8101908080519060200190929190505050905092915050565b600360009054906101000a900473ffffffffffffffffffffffffffffffffffffffff1681565b600260009054906101000a900473ffffffffffffffffffffffffffffffffffffffff1673ffffffffffffffffffffffffffffffffffffffff163373ffffffffffffffffffffffffffffffffffffffff16141515611c7e576040517f08c379a00000000000000000000000000000000000000000000000000000000081526004018080602001828103825260148152602001807f4163636f756e74206973206e6f74206f776e657200000000000000000000000081525060200191505060405180910390fd5b600073ffffffffffffffffffffffffffffffffffffffff168173ffffffffffffffffffffffffffffffffffffffff1614151515611d23576040517f08c379a000000000000000000000000000000000000000000000000000000000815260040180806020018281038252600d8152602001807f456d70747920616464726573730000000000000000000000000000000000000081525060200191505060405180910390fd5b80600360006101000a81548173ffffffffffffffffffffffffffffffffffffffff021916908373ffffffffffffffffffffffffffffffffffffffff16021790555050565b600260009054906101000a900473ffffffffffffffffffffffffffffffffffffffff1673ffffffffffffffffffffffffffffffffffffffff163373ffffffffffffffffffffffffffffffffffffffff16141515611e2c576040517f08c379a00000000000000000000000000000000000000000000000000000000081526004018080602001828103825260148152602001807f4163636f756e74206973206e6f74206f776e657200000000000000000000000081525060200191505060405180910390fd5b6000600360156101000a81548160ff0219169083151502179055507f0f2e5b6c72c6a4491efd919a9f9a409f324ef0708c11ee57d410c2cb06c0992b60405160405180910390a1565b6000600160009054906101000a900473ffffffffffffffffffffffffffffffffffffffff1673ffffffffffffffffffffffffffffffffffffffff1663da46098c3385856040518463ffffffff167c0100000000000000000000000000000000000000000000000000000000028152600401808473ffffffffffffffffffffffffffffffffffffffff1673ffffffffffffffffffffffffffffffffffffffff1681526020018373ffffffffffffffffffffffffffffffffffffffff1673ffffffffffffffffffffffffffffffffffffffff1681526020018281526020019350505050600060405180830381600087803b158015611f7057600080fd5b505af1158015611f84573d6000803e3d6000fd5b505050508273ffffffffffffffffffffffffffffffffffffffff163373ffffffffffffffffffffffffffffffffffffffff167f8c5be1e5ebec7d5bd14f71427d1e84f3dd0314c0f7b2291e5b200ac8c7c3b925846040518082815260200191505060405180910390a36001905092915050565b60006120038433611a5d565b821115151561207a576040517f08c379a00000000000000000000000000000000000000000000000000000000081526004018080602001828103825260208152602001807f6e6f7420656e6f75676820616c6c6f77616e636520746f207472616e7366657281525060200191505060405180910390fd5b600073ffffffffffffffffffffffffffffffffffffffff168373ffffffffffffffffffffffffffffffffffffffff161415151561211f576040517f08c379a00000000000000000000000000000000000000000000000000000000081526004018080602001828103825260188152602001807f746f20616464726573732063616e6e6f7420626520307830000000000000000081525060200191505060405180910390fd5b612128846111c0565b821115151561219f576040517f08c379a000000000000000000000000000000000000000000000000000000000815260040180806020018281038252601e8152602001807f6e6f7420656e6f7567682062616c616e636520746f207472616e73666572000081525060200191505060405180910390fd5b600160009054906101000a900473ffffffffffffffffffffffffffffffffffffffff1673ffffffffffffffffffffffffffffffffffffffff166397d88cd28533856040518463ffffffff167c0100000000000000000000000000000000000000000000000000000000028152600401808473ffffffffffffffffffffffffffffffffffffffff1673ffffffffffffffffffffffffffffffffffffffff1681526020018373ffffffffffffffffffffffffffffffffffffffff1673ffffffffffffffffffffffffffffffffffffffff1681526020018281526020019350505050600060405180830381600087803b15801561229857600080fd5b505af11580156122ac573d6000803e3d6000fd5b505050506000809054906101000a900473ffffffffffffffffffffffffffffffffffffffff1673ffffffffffffffffffffffffffffffffffffffff166321e5383a84846040518363ffffffff167c0100000000000000000000000000000000000000000000000000000000028152600401808373ffffffffffffffffffffffffffffffffffffffff1673ffffffffffffffffffffffffffffffffffffffff16815260200182815260200192505050600060405180830381600087803b15801561237457600080fd5b505af1158015612388573d6000803e3d6000fd5b505050506000809054906101000a900473ffffffffffffffffffffffffffffffffffffffff1673ffffffffffffffffffffffffffffffffffffffff1663cf8eeb7e85846040518363ffffffff167c0100000000000000000000000000000000000000000000000000000000028152600401808373ffffffffffffffffffffffffffffffffffffffff1673ffffffffffffffffffffffffffffffffffffffff16815260200182815260200192505050600060405180830381600087803b15801561245057600080fd5b505af1158015612464573d6000803e3d6000fd5b505050508273ffffffffffffffffffffffffffffffffffffffff168473ffffffffffffffffffffffffffffffffffffffff167fddf252ad1be2c89b69c2b068fc378daa952ba7f163c4a11628f55a4df523b3ef846040518082815260200191505060405180910390a3600190509392505050565b600260009054906101000a900473ffffffffffffffffffffffffffffffffffffffff1673ffffffffffffffffffffffffffffffffffffffff163373ffffffffffffffffffffffffffffffffffffffff1614151561259d576040517f08c379a00000000000000000000000000000000000000000000000000000000081526004018080602001828103825260148152602001807f4163636f756e74206973206e6f74206f776e657200000000000000000000000081525060200191505060405180910390fd5b6125a782826130a2565b5050565b6125b533826132de565b50565b6000600160009054906101000a900473ffffffffffffffffffffffffffffffffffffffff1673ffffffffffffffffffffffffffffffffffffffff16631a46ec8283866040518363ffffffff167c0100000000000000000000000000000000000000000000000000000000028152600401808373ffffffffffffffffffffffffffffffffffffffff1673ffffffffffffffffffffffffffffffffffffffff1681526020018273ffffffffffffffffffffffffffffffffffffffff1673ffffffffffffffffffffffffffffffffffffffff16815260200192505050602060405180830381600087803b1580156126ab57600080fd5b505af11580156126bf573d6000803e3d6000fd5b505050506040513d60208110156126d557600080fd5b810190808051906020019092919050505090508083111561280757600160009054906101000a900473ffffffffffffffffffffffffffffffffffffffff1673ffffffffffffffffffffffffffffffffffffffff1663da46098c838660006040518463ffffffff167c0100000000000000000000000000000000000000000000000000000000028152600401808473ffffffffffffffffffffffffffffffffffffffff1673ffffffffffffffffffffffffffffffffffffffff1681526020018373ffffffffffffffffffffffffffffffffffffffff1673ffffffffffffffffffffffffffffffffffffffff1681526020018281526020019350505050600060405180830381600087803b1580156127ea57600080fd5b505af11580156127fe573d6000803e3d6000fd5b50505050612919565b600160009054906101000a900473ffffffffffffffffffffffffffffffffffffffff1673ffffffffffffffffffffffffffffffffffffffff166397d88cd28386866040518463ffffffff167c0100000000000000000000000000000000000000000000000000000000028152600401808473ffffffffffffffffffffffffffffffffffffffff1673ffffffffffffffffffffffffffffffffffffffff1681526020018373ffffffffffffffffffffffffffffffffffffffff1673ffffffffffffffffffffffffffffffffffffffff1681526020018281526020019350505050600060405180830381600087803b15801561290057600080fd5b505af1158015612914573d6000803e3d6000fd5b505050505b8373ffffffffffffffffffffffffffffffffffffffff168273ffffffffffffffffffffffffffffffffffffffff167f8c5be1e5ebec7d5bd14f71427d1e84f3dd0314c0f7b2291e5b200ac8c7c3b925600160009054906101000a900473ffffffffffffffffffffffffffffffffffffffff1673ffffffffffffffffffffffffffffffffffffffff16631a46ec8286896040518363ffffffff167c0100000000000000000000000000000000000000000000000000000000028152600401808373ffffffffffffffffffffffffffffffffffffffff1673ffffffffffffffffffffffffffffffffffffffff1681526020018273ffffffffffffffffffffffffffffffffffffffff1673ffffffffffffffffffffffffffffffffffffffff16815260200192505050602060405180830381600087803b158015612a5957600080fd5b505af1158015612a6d573d6000803e3d6000fd5b505050506040513d6020811015612a8357600080fd5b81019080805190602001909291905050506040518082815260200191505060405180910390a350505050565b60008073ffffffffffffffffffffffffffffffffffffffff168373ffffffffffffffffffffffffffffffffffffffff1614151515612b55576040517f08c379a00000000000000000000000000000000000000000000000000000000081526004018080602001828103825260188152602001807f746f20616464726573732063616e6e6f7420626520307830000000000000000081525060200191505060405180910390fd5b612b5e336111c0565b8211151515612bd5576040517f08c379a000000000000000000000000000000000000000000000000000000000815260040180806020018281038252601e8152602001807f6e6f7420656e6f7567682062616c616e636520746f207472616e73666572000081525060200191505060405180910390fd5b6000809054906101000a900473ffffffffffffffffffffffffffffffffffffffff1673ffffffffffffffffffffffffffffffffffffffff1663cf8eeb7e33846040518363ffffffff167c0100000000000000000000000000000000000000000000000000000000028152600401808373ffffffffffffffffffffffffffffffffffffffff1673ffffffffffffffffffffffffffffffffffffffff16815260200182815260200192505050600060405180830381600087803b158015612c9957600080fd5b505af1158015612cad573d6000803e3d6000fd5b505050506000809054906101000a900473ffffffffffffffffffffffffffffffffffffffff1673ffffffffffffffffffffffffffffffffffffffff166321e5383a84846040518363ffffffff167c0100000000000000000000000000000000000000000000000000000000028152600401808373ffffffffffffffffffffffffffffffffffffffff1673ffffffffffffffffffffffffffffffffffffffff16815260200182815260200192505050600060405180830381600087803b158015612d7557600080fd5b505af1158015612d89573d6000803e3d6000fd5b505050508273ffffffffffffffffffffffffffffffffffffffff163373ffffffffffffffffffffffffffffffffffffffff167fddf252ad1be2c89b69c2b068fc378daa952ba7f163c4a11628f55a4df523b3ef846040518082815260200191505060405180910390a36001905092915050565b600160009054906101000a900473ffffffffffffffffffffffffffffffffffffffff1673ffffffffffffffffffffffffffffffffffffffff16635fd72d168285856040518463ffffffff167c0100000000000000000000000000000000000000000000000000000000028152600401808473ffffffffffffffffffffffffffffffffffffffff1673ffffffffffffffffffffffffffffffffffffffff1681526020018373ffffffffffffffffffffffffffffffffffffffff1673ffffffffffffffffffffffffffffffffffffffff1681526020018281526020019350505050600060405180830381600087803b158015612ef557600080fd5b505af1158015612f09573d6000803e3d6000fd5b505050508273ffffffffffffffffffffffffffffffffffffffff168173ffffffffffffffffffffffffffffffffffffffff167f8c5be1e5ebec7d5bd14f71427d1e84f3dd0314c0f7b2291e5b200ac8c7c3b925600160009054906101000a900473ffffffffffffffffffffffffffffffffffffffff1673ffffffffffffffffffffffffffffffffffffffff16631a46ec8285886040518363ffffffff167c0100000000000000000000000000000000000000000000000000000000028152600401808373ffffffffffffffffffffffffffffffffffffffff1673ffffffffffffffffffffffffffffffffffffffff1681526020018273ffffffffffffffffffffffffffffffffffffffff1673ffffffffffffffffffffffffffffffffffffffff16815260200192505050602060405180830381600087803b15801561304d57600080fd5b505af1158015613061573d6000803e3d6000fd5b505050506040513d602081101561307757600080fd5b81019080805190602001909291905050506040518082815260200191505060405180910390a3505050565b6000809054906101000a900473ffffffffffffffffffffffffffffffffffffffff1673ffffffffffffffffffffffffffffffffffffffff1663e468688e826040518263ffffffff167c010000000000000000000000000000000000000000000000000000000002815260040180828152602001915050600060405180830381600087803b15801561313257600080fd5b505af1158015613146573d6000803e3d6000fd5b505050506000809054906101000a900473ffffffffffffffffffffffffffffffffffffffff1673ffffffffffffffffffffffffffffffffffffffff166321e5383a83836040518363ffffffff167c0100000000000000000000000000000000000000000000000000000000028152600401808373ffffffffffffffffffffffffffffffffffffffff1673ffffffffffffffffffffffffffffffffffffffff16815260200182815260200192505050600060405180830381600087803b15801561320e57600080fd5b505af1158015613222573d6000803e3d6000fd5b505050508173ffffffffffffffffffffffffffffffffffffffff167f0f6798a560793a54c3bcfe86a93cde1e73087d944c0ea20544137d4121396885826040518082815260200191505060405180910390a28173ffffffffffffffffffffffffffffffffffffffff16600073ffffffffffffffffffffffffffffffffffffffff167fddf252ad1be2c89b69c2b068fc378daa952ba7f163c4a11628f55a4df523b3ef836040518082815260200191505060405180910390a35050565b6132e7826111c0565b811115151561335e576040517f08c379a000000000000000000000000000000000000000000000000000000000815260040180806020018281038252601a8152602001807f6e6f7420656e6f7567682062616c616e636520746f206275726e00000000000081525060200191505060405180910390fd5b6000809054906101000a900473ffffffffffffffffffffffffffffffffffffffff1673ffffffffffffffffffffffffffffffffffffffff1663cf8eeb7e83836040518363ffffffff167c0100000000000000000000000000000000000000000000000000000000028152600401808373ffffffffffffffffffffffffffffffffffffffff1673ffffffffffffffffffffffffffffffffffffffff16815260200182815260200192505050600060405180830381600087803b15801561342257600080fd5b505af1158015613436573d6000803e3d6000fd5b505050506000809054906101000a900473ffffffffffffffffffffffffffffffffffffffff1673ffffffffffffffffffffffffffffffffffffffff166382838c76826040518263ffffffff167c010000000000000000000000000000000000000000000000000000000002815260040180828152602001915050600060405180830381600087803b1580156134ca57600080fd5b505af11580156134de573d6000803e3d6000fd5b505050508173ffffffffffffffffffffffffffffffffffffffff167fcc16f5dbb4873280815c1ee09dbd06736cffcc184412cf7a71a0fdb75d397ca5826040518082815260200191505060405180910390a2600073ffffffffffffffffffffffffffffffffffffffff168273ffffffffffffffffffffffffffffffffffffffff167fddf252ad1be2c89b69c2b068fc378daa952ba7f163c4a11628f55a4df523b3ef836040518082815260200191505060405180910390a350505600a165627a7a723058209ec28c3f5590234db727431e6a72c2307862c27dfb5c8e024a6229783fab4fc10029",
  "source": "pragma solidity ^0.4.24;\n\nimport \"./AkropolisBaseToken.sol\";\nimport \"../helpers/Lockable.sol\";\nimport \"../helpers/Pausable.sol\";\nimport \"../helpers/Whitelist.sol\";\n\n\n/**\n* @title AkropolisToken\n* @notice Adds pausability and disables approve() to defend against double-spend attacks in addition\n* to inherited AkropolisBaseToken behavior\n*/\ncontract AkropolisToken is AkropolisBaseToken, Pausable, Lockable, Whitelist {\n    using SafeMath for uint256;\n\n    /** Events */\n\n    constructor (address _balances, address _allowances) public \n    AkropolisBaseToken(_balances, _allowances) {}\n\n    /** Modifiers **/\n\n    /** Functions **/\n\n    function mint(address _to, uint256 _amount) public whenUnlocked  {\n        super.mint(_to, _amount);\n    }\n\n    function burn(uint256 _amount) public whenUnlocked  {\n        super.burn(_amount);\n    }\n\n    /**\n    * @notice Implements ERC-20 standard approve function. Locked or disabled by default to protect against\n    * double spend attacks. To modify allowances, clients should call safer increase/decreaseApproval methods.\n    * Upon construction, all calls to approve() will revert unless this contract owner explicitly unlocks approve()\n    */\n    function approve(address _spender, uint256 _value) \n    public whenNotPaused  returns (bool) {\n        super.approve(_spender, _value);\n    }\n\n    /**\n     * @dev Increase the amount of tokens that an owner allowed to a spender.\n     * @notice increaseApproval should be used instead of approve when the user's allowance\n     * is greater than 0. Using increaseApproval protects against potential double-spend attacks\n     * by moving the check of whether the user has spent their allowance to the time that the transaction \n     * is mined, removing the user's ability to double-spend\n     * @param _spender The address which will spend the funds.\n     * @param _addedValue The amount of tokens to increase the allowance by.\n     */\n    function increaseApproval(address _spender, uint256 _addedValue) \n    public whenNotPaused returns (bool) {\n        increaseApprovalAllArgs(_spender, _addedValue, msg.sender);\n        return true;\n    }\n\n    /**\n     * @dev Decrease the amount of tokens that an owner allowed to a spender.\n     * @notice decreaseApproval should be used instead of approve when the user's allowance\n     * is greater than 0. Using decreaseApproval protects against potential double-spend attacks\n     * by moving the check of whether the user has spent their allowance to the time that the transaction \n     * is mined, removing the user's ability to double-spend\n     * @param _spender The address which will spend the funds.\n     * @param _subtractedValue The amount of tokens to decrease the allowance by.\n     */\n    function decreaseApproval(address _spender, uint256 _subtractedValue) \n    public whenNotPaused returns (bool) {\n        decreaseApprovalAllArgs(_spender, _subtractedValue, msg.sender);\n        return true;\n    }\n\n    function transfer(address _to, uint256 _amount) public whenNotPaused onlyWhitelist returns (bool) {\n        super.transfer(_to, _amount);\n    }\n\n    /**\n    * @notice Initiates a transfer operation between address `_from` and `_to`. Requires that the\n    * message sender is an approved spender on the _from account.\n    * @dev When implemented, it should use the transferFromConditionsRequired() modifier.\n    * @param _to The address of the recipient. This address must not be blacklisted.\n    * @param _from The address of the origin of funds. This address _could_ be blacklisted, because\n    * a regulator may want to transfer tokens out of a blacklisted account, for example.\n    * In order to do so, the regulator would have to add themselves as an approved spender\n    * on the account via `addBlacklistAddressSpender()`, and would then be able to transfer tokens out of it.\n    * @param _amount The number of tokens to transfer\n    * @return `true` if successful \n    */\n    function transferFrom(address _from, address _to, uint256 _amount) \n    public whenNotPaused onlyWhitelist returns (bool) {\n        super.transferFrom(_from, _to, _amount);\n    }\n\n\n    /** Internal functions **/\n    \n    function decreaseApprovalAllArgs(address _spender, uint256 _subtractedValue, address _tokenHolder) internal {\n        uint256 oldValue = allowances.allowanceOf(_tokenHolder, _spender);\n        if (_subtractedValue > oldValue) {\n            allowances.setAllowance(_tokenHolder, _spender, 0);\n        } else {\n            allowances.subAllowance(_tokenHolder, _spender, _subtractedValue);\n        }\n        emit Approval(_tokenHolder, _spender, allowances.allowanceOf(_tokenHolder, _spender));\n    }\n\n    function increaseApprovalAllArgs(address _spender, uint256 _addedValue, address _tokenHolder) internal {\n        allowances.addAllowance(_tokenHolder, _spender, _addedValue);\n        emit Approval(_tokenHolder, _spender, allowances.allowanceOf(_tokenHolder, _spender));\n    }\n}",
  "sourcePath": "/Users/alexandermazaletskiy/Documents/Akropolis/UpgradeableERC20/contracts/token/AkropolisToken.sol",
  "compiler": {
    "name": "solc",
    "version": "0.4.24+commit.e67f0147.Emscripten.clang"
  },
  "schemaVersion": "2.0.1",
  "updatedAt": "2018-12-18T12:14:56.854Z"
}