{
  "contractName": "AkropolisBaseToken",
  "abi": [
    {
      "constant": true,
      "inputs": [],
      "name": "name",
      "outputs": [
        {
          "name": "",
          "type": "string"
        }
      ],
      "payable": false,
      "stateMutability": "view",
      "type": "function"
    },
    {
      "constant": true,
      "inputs": [],
      "name": "decimals",
      "outputs": [
        {
          "name": "",
          "type": "uint8"
        }
      ],
      "payable": false,
      "stateMutability": "view",
      "type": "function"
    },
    {
      "constant": true,
      "inputs": [],
      "name": "allowances",
      "outputs": [
        {
          "name": "",
          "type": "address"
        }
      ],
      "payable": false,
      "stateMutability": "view",
      "type": "function"
    },
    {
      "constant": false,
      "inputs": [],
      "name": "claimOwnership",
      "outputs": [],
      "payable": false,
      "stateMutability": "nonpayable",
      "type": "function"
    },
    {
      "constant": true,
      "inputs": [],
      "name": "balances",
      "outputs": [
        {
          "name": "",
          "type": "address"
        }
      ],
      "payable": false,
      "stateMutability": "view",
      "type": "function"
    },
    {
      "constant": false,
      "inputs": [],
      "name": "claimBalanceOwnership",
      "outputs": [],
      "payable": false,
      "stateMutability": "nonpayable",
      "type": "function"
    },
    {
      "constant": true,
      "inputs": [],
      "name": "owner",
      "outputs": [
        {
          "name": "",
          "type": "address"
        }
      ],
      "payable": false,
      "stateMutability": "view",
      "type": "function"
    },
    {
      "constant": true,
      "inputs": [],
      "name": "symbol",
      "outputs": [
        {
          "name": "",
          "type": "string"
        }
      ],
      "payable": false,
      "stateMutability": "view",
      "type": "function"
    },
    {
      "constant": false,
      "inputs": [],
      "name": "claimAllowanceOwnership",
      "outputs": [],
      "payable": false,
      "stateMutability": "nonpayable",
      "type": "function"
    },
    {
      "constant": true,
      "inputs": [],
      "name": "pendingOwner",
      "outputs": [
        {
          "name": "",
          "type": "address"
        }
      ],
      "payable": false,
      "stateMutability": "view",
      "type": "function"
    },
    {
      "constant": false,
      "inputs": [
        {
          "name": "_newOwner",
          "type": "address"
        }
      ],
      "name": "transferOwnership",
      "outputs": [],
      "payable": false,
      "stateMutability": "nonpayable",
      "type": "function"
    },
    {
      "inputs": [
        {
          "name": "_balances",
          "type": "address"
        },
        {
          "name": "_allowances",
          "type": "address"
        },
        {
          "name": "_name",
          "type": "string"
        },
        {
          "name": "_decimals",
          "type": "uint8"
        },
        {
          "name": "_symbol",
          "type": "string"
        }
      ],
      "payable": false,
      "stateMutability": "nonpayable",
      "type": "constructor"
    },
    {
      "anonymous": false,
      "inputs": [
        {
          "indexed": true,
          "name": "to",
          "type": "address"
        },
        {
          "indexed": false,
          "name": "value",
          "type": "uint256"
        }
      ],
      "name": "Mint",
      "type": "event"
    },
    {
      "anonymous": false,
      "inputs": [
        {
          "indexed": true,
          "name": "burner",
          "type": "address"
        },
        {
          "indexed": false,
          "name": "value",
          "type": "uint256"
        }
      ],
      "name": "Burn",
      "type": "event"
    },
    {
      "anonymous": false,
      "inputs": [
        {
          "indexed": true,
          "name": "from",
          "type": "address"
        },
        {
          "indexed": true,
          "name": "to",
          "type": "address"
        },
        {
          "indexed": false,
          "name": "value",
          "type": "uint256"
        }
      ],
      "name": "Transfer",
      "type": "event"
    },
    {
      "anonymous": false,
      "inputs": [
        {
          "indexed": true,
          "name": "owner",
          "type": "address"
        },
        {
          "indexed": true,
          "name": "spender",
          "type": "address"
        },
        {
          "indexed": false,
          "name": "value",
          "type": "uint256"
        }
      ],
      "name": "Approval",
      "type": "event"
    },
    {
      "anonymous": false,
      "inputs": [
        {
          "indexed": true,
          "name": "previousOwner",
          "type": "address"
        },
        {
          "indexed": true,
          "name": "newOwner",
          "type": "address"
        }
      ],
      "name": "OwnershipTransferred",
      "type": "event"
    },
    {
      "constant": false,
      "inputs": [
        {
          "name": "_to",
          "type": "address"
        },
        {
          "name": "_amount",
          "type": "uint256"
        }
      ],
      "name": "mint",
      "outputs": [],
      "payable": false,
      "stateMutability": "nonpayable",
      "type": "function"
    },
    {
      "constant": false,
      "inputs": [
        {
          "name": "_amount",
          "type": "uint256"
        }
      ],
      "name": "burn",
      "outputs": [],
      "payable": false,
      "stateMutability": "nonpayable",
      "type": "function"
    },
    {
      "constant": false,
      "inputs": [
        {
          "name": "_spender",
          "type": "address"
        },
        {
          "name": "_value",
          "type": "uint256"
        }
      ],
      "name": "approve",
      "outputs": [
        {
          "name": "",
          "type": "bool"
        }
      ],
      "payable": false,
      "stateMutability": "nonpayable",
      "type": "function"
    },
    {
      "constant": false,
      "inputs": [
        {
          "name": "_to",
          "type": "address"
        },
        {
          "name": "_amount",
          "type": "uint256"
        }
      ],
      "name": "transfer",
      "outputs": [
        {
          "name": "",
          "type": "bool"
        }
      ],
      "payable": false,
      "stateMutability": "nonpayable",
      "type": "function"
    },
    {
      "constant": false,
      "inputs": [
        {
          "name": "_from",
          "type": "address"
        },
        {
          "name": "_to",
          "type": "address"
        },
        {
          "name": "_amount",
          "type": "uint256"
        }
      ],
      "name": "transferFrom",
      "outputs": [
        {
          "name": "",
          "type": "bool"
        }
      ],
      "payable": false,
      "stateMutability": "nonpayable",
      "type": "function"
    },
    {
      "constant": true,
      "inputs": [
        {
          "name": "who",
          "type": "address"
        }
      ],
      "name": "balanceOf",
      "outputs": [
        {
          "name": "",
          "type": "uint256"
        }
      ],
      "payable": false,
      "stateMutability": "view",
      "type": "function"
    },
    {
      "constant": true,
      "inputs": [
        {
          "name": "owner",
          "type": "address"
        },
        {
          "name": "spender",
          "type": "address"
        }
      ],
      "name": "allowance",
      "outputs": [
        {
          "name": "",
          "type": "uint256"
        }
      ],
      "payable": false,
      "stateMutability": "view",
      "type": "function"
    },
    {
      "constant": true,
      "inputs": [],
      "name": "totalSupply",
      "outputs": [
        {
          "name": "",
          "type": "uint256"
        }
      ],
      "payable": false,
      "stateMutability": "view",
      "type": "function"
    }
  ],
  "bytecode": "0x60806040523480156200001157600080fd5b50604051620023143803806200231483398101806040528101908080519060200190929190805190602001909291908051820192919060200180519060200190929190805182019291905050508484848484846000806101000a81548173ffffffffffffffffffffffffffffffffffffffff021916908373ffffffffffffffffffffffffffffffffffffffff16021790555083600160006101000a81548173ffffffffffffffffffffffffffffffffffffffff021916908373ffffffffffffffffffffffffffffffffffffffff1602179055508260029080519060200190620000fc929190620001c4565b5081600360006101000a81548160ff021916908360ff160217905550806004908051906020019062000130929190620001c4565b50505050505033600560006101000a81548173ffffffffffffffffffffffffffffffffffffffff021916908373ffffffffffffffffffffffffffffffffffffffff1602179055506000600660006101000a81548173ffffffffffffffffffffffffffffffffffffffff021916908373ffffffffffffffffffffffffffffffffffffffff160217905550505050505062000273565b828054600181600116156101000203166002900490600052602060002090601f016020900481019282601f106200020757805160ff191683800117855562000238565b8280016001018555821562000238579182015b82811115620002375782518255916020019190600101906200021a565b5b5090506200024791906200024b565b5090565b6200027091905b808211156200026c57600081600090555060010162000252565b5090565b90565b61209180620002836000396000f300608060405260043610610107576000357c0100000000000000000000000000000000000000000000000000000000900463ffffffff16806306fdde031461010c578063095ea7b31461019c57806318160ddd1461020157806323b872dd1461022c578063313ce567146102b15780633ed10b92146102e257806340c10f191461033957806342966c68146103865780634e71e0c8146103b357806370a08231146103ca5780637bb98a68146104215780638955ed7e146104785780638da5cb5b1461048f57806395d89b41146104e65780639b2bdc2014610576578063a9059cbb1461058d578063dd62ed3e146105f2578063e30c397814610669578063f2fde38b146106c0575b600080fd5b34801561011857600080fd5b50610121610703565b6040518080602001828103825283818151815260200191508051906020019080838360005b83811015610161578082015181840152602081019050610146565b50505050905090810190601f16801561018e5780820380516001836020036101000a031916815260200191505b509250505060405180910390f35b3480156101a857600080fd5b506101e7600480360381019080803573ffffffffffffffffffffffffffffffffffffffff169060200190929190803590602001909291905050506107a1565b604051808215151515815260200191505060405180910390f35b34801561020d57600080fd5b50610216610923565b6040518082815260200191505060405180910390f35b34801561023857600080fd5b50610297600480360381019080803573ffffffffffffffffffffffffffffffffffffffff169060200190929190803573ffffffffffffffffffffffffffffffffffffffff169060200190929190803590602001909291905050506109ea565b604051808215151515815260200191505060405180910390f35b3480156102bd57600080fd5b506102c6610ecb565b604051808260ff1660ff16815260200191505060405180910390f35b3480156102ee57600080fd5b506102f7610ede565b604051808273ffffffffffffffffffffffffffffffffffffffff1673ffffffffffffffffffffffffffffffffffffffff16815260200191505060405180910390f35b34801561034557600080fd5b50610384600480360381019080803573ffffffffffffffffffffffffffffffffffffffff16906020019092919080359060200190929190505050610f04565b005b34801561039257600080fd5b506103b160048036038101908080359060200190929190505050610fd7565b005b3480156103bf57600080fd5b506103c8610fe4565b005b3480156103d657600080fd5b5061040b600480360381019080803573ffffffffffffffffffffffffffffffffffffffff1690602001909291905050506111ee565b6040518082815260200191505060405180910390f35b34801561042d57600080fd5b506104366112ee565b604051808273ffffffffffffffffffffffffffffffffffffffff1673ffffffffffffffffffffffffffffffffffffffff16815260200191505060405180910390f35b34801561048457600080fd5b5061048d611313565b005b34801561049b57600080fd5b506104a46113b2565b604051808273ffffffffffffffffffffffffffffffffffffffff1673ffffffffffffffffffffffffffffffffffffffff16815260200191505060405180910390f35b3480156104f257600080fd5b506104fb6113d8565b6040518080602001828103825283818151815260200191508051906020019080838360005b8381101561053b578082015181840152602081019050610520565b50505050905090810190601f1680156105685780820380516001836020036101000a031916815260200191505b509250505060405180910390f35b34801561058257600080fd5b5061058b611476565b005b34801561059957600080fd5b506105d8600480360381019080803573ffffffffffffffffffffffffffffffffffffffff16906020019092919080359060200190929190505050611516565b604051808215151515815260200191505060405180910390f35b3480156105fe57600080fd5b50610653600480360381019080803573ffffffffffffffffffffffffffffffffffffffff169060200190929190803573ffffffffffffffffffffffffffffffffffffffff169060200190929190505050611863565b6040518082815260200191505060405180910390f35b34801561067557600080fd5b5061067e611999565b604051808273ffffffffffffffffffffffffffffffffffffffff1673ffffffffffffffffffffffffffffffffffffffff16815260200191505060405180910390f35b3480156106cc57600080fd5b50610701600480360381019080803573ffffffffffffffffffffffffffffffffffffffff1690602001909291905050506119bf565b005b60028054600181600116156101000203166002900480601f0160208091040260200160405190810160405280929190818152602001828054600181600116156101000203166002900480156107995780601f1061076e57610100808354040283529160200191610799565b820191906000526020600020905b81548152906001019060200180831161077c57829003601f168201915b505050505081565b6000600160009054906101000a900473ffffffffffffffffffffffffffffffffffffffff1673ffffffffffffffffffffffffffffffffffffffff1663da46098c3385856040518463ffffffff167c0100000000000000000000000000000000000000000000000000000000028152600401808473ffffffffffffffffffffffffffffffffffffffff1673ffffffffffffffffffffffffffffffffffffffff1681526020018373ffffffffffffffffffffffffffffffffffffffff1673ffffffffffffffffffffffffffffffffffffffff1681526020018281526020019350505050600060405180830381600087803b15801561089c57600080fd5b505af11580156108b0573d6000803e3d6000fd5b505050508273ffffffffffffffffffffffffffffffffffffffff163373ffffffffffffffffffffffffffffffffffffffff167f8c5be1e5ebec7d5bd14f71427d1e84f3dd0314c0f7b2291e5b200ac8c7c3b925846040518082815260200191505060405180910390a36001905092915050565b60008060009054906101000a900473ffffffffffffffffffffffffffffffffffffffff1673ffffffffffffffffffffffffffffffffffffffff166318160ddd6040518163ffffffff167c0100000000000000000000000000000000000000000000000000000000028152600401602060405180830381600087803b1580156109aa57600080fd5b505af11580156109be573d6000803e3d6000fd5b505050506040513d60208110156109d457600080fd5b8101908080519060200190929190505050905090565b60006109f68433611863565b8211151515610a6d576040517f08c379a00000000000000000000000000000000000000000000000000000000081526004018080602001828103825260208152602001807f6e6f7420656e6f75676820616c6c6f77616e636520746f207472616e7366657281525060200191505060405180910390fd5b600073ffffffffffffffffffffffffffffffffffffffff168373ffffffffffffffffffffffffffffffffffffffff1614151515610b12576040517f08c379a00000000000000000000000000000000000000000000000000000000081526004018080602001828103825260188152602001807f746f20616464726573732063616e6e6f7420626520307830000000000000000081525060200191505060405180910390fd5b610b1b846111ee565b8211151515610b92576040517f08c379a000000000000000000000000000000000000000000000000000000000815260040180806020018281038252601e8152602001807f6e6f7420656e6f7567682062616c616e636520746f207472616e73666572000081525060200191505060405180910390fd5b600160009054906101000a900473ffffffffffffffffffffffffffffffffffffffff1673ffffffffffffffffffffffffffffffffffffffff166397d88cd28533856040518463ffffffff167c0100000000000000000000000000000000000000000000000000000000028152600401808473ffffffffffffffffffffffffffffffffffffffff1673ffffffffffffffffffffffffffffffffffffffff1681526020018373ffffffffffffffffffffffffffffffffffffffff1673ffffffffffffffffffffffffffffffffffffffff1681526020018281526020019350505050600060405180830381600087803b158015610c8b57600080fd5b505af1158015610c9f573d6000803e3d6000fd5b505050506000809054906101000a900473ffffffffffffffffffffffffffffffffffffffff1673ffffffffffffffffffffffffffffffffffffffff166321e5383a84846040518363ffffffff167c0100000000000000000000000000000000000000000000000000000000028152600401808373ffffffffffffffffffffffffffffffffffffffff1673ffffffffffffffffffffffffffffffffffffffff16815260200182815260200192505050600060405180830381600087803b158015610d6757600080fd5b505af1158015610d7b573d6000803e3d6000fd5b505050506000809054906101000a900473ffffffffffffffffffffffffffffffffffffffff1673ffffffffffffffffffffffffffffffffffffffff1663cf8eeb7e85846040518363ffffffff167c0100000000000000000000000000000000000000000000000000000000028152600401808373ffffffffffffffffffffffffffffffffffffffff1673ffffffffffffffffffffffffffffffffffffffff16815260200182815260200192505050600060405180830381600087803b158015610e4357600080fd5b505af1158015610e57573d6000803e3d6000fd5b505050508273ffffffffffffffffffffffffffffffffffffffff168473ffffffffffffffffffffffffffffffffffffffff167fddf252ad1be2c89b69c2b068fc378daa952ba7f163c4a11628f55a4df523b3ef846040518082815260200191505060405180910390a3600190509392505050565b600360009054906101000a900460ff1681565b600160009054906101000a900473ffffffffffffffffffffffffffffffffffffffff1681565b600560009054906101000a900473ffffffffffffffffffffffffffffffffffffffff1673ffffffffffffffffffffffffffffffffffffffff163373ffffffffffffffffffffffffffffffffffffffff16141515610fc9576040517f08c379a00000000000000000000000000000000000000000000000000000000081526004018080602001828103825260148152602001807f4163636f756e74206973206e6f74206f776e657200000000000000000000000081525060200191505060405180910390fd5b610fd38282611b6d565b5050565b610fe13382611da9565b50565b600660009054906101000a900473ffffffffffffffffffffffffffffffffffffffff1673ffffffffffffffffffffffffffffffffffffffff163373ffffffffffffffffffffffffffffffffffffffff161415156110a9576040517f08c379a000000000000000000000000000000000000000000000000000000000815260040180806020018281038252601c8152602001807f4163636f756e74206973206e6f742070656e64696e67206f776e65720000000081525060200191505060405180910390fd5b600660009054906101000a900473ffffffffffffffffffffffffffffffffffffffff1673ffffffffffffffffffffffffffffffffffffffff16600560009054906101000a900473ffffffffffffffffffffffffffffffffffffffff1673ffffffffffffffffffffffffffffffffffffffff167f8be0079c531659141344cd1fd0a4f28419497f9722a3daafe3b4186f6b6457e060405160405180910390a3600660009054906101000a900473ffffffffffffffffffffffffffffffffffffffff16600560006101000a81548173ffffffffffffffffffffffffffffffffffffffff021916908373ffffffffffffffffffffffffffffffffffffffff1602179055506000600660006101000a81548173ffffffffffffffffffffffffffffffffffffffff021916908373ffffffffffffffffffffffffffffffffffffffff160217905550565b60008060009054906101000a900473ffffffffffffffffffffffffffffffffffffffff1673ffffffffffffffffffffffffffffffffffffffff166370a08231836040518263ffffffff167c0100000000000000000000000000000000000000000000000000000000028152600401808273ffffffffffffffffffffffffffffffffffffffff1673ffffffffffffffffffffffffffffffffffffffff168152602001915050602060405180830381600087803b1580156112ac57600080fd5b505af11580156112c0573d6000803e3d6000fd5b505050506040513d60208110156112d657600080fd5b81019080805190602001909291905050509050919050565b6000809054906101000a900473ffffffffffffffffffffffffffffffffffffffff1681565b6000809054906101000a900473ffffffffffffffffffffffffffffffffffffffff1673ffffffffffffffffffffffffffffffffffffffff16634e71e0c86040518163ffffffff167c0100000000000000000000000000000000000000000000000000000000028152600401600060405180830381600087803b15801561139857600080fd5b505af11580156113ac573d6000803e3d6000fd5b50505050565b600560009054906101000a900473ffffffffffffffffffffffffffffffffffffffff1681565b60048054600181600116156101000203166002900480601f01602080910402602001604051908101604052809291908181526020018280546001816001161561010002031660029004801561146e5780601f106114435761010080835404028352916020019161146e565b820191906000526020600020905b81548152906001019060200180831161145157829003601f168201915b505050505081565b600160009054906101000a900473ffffffffffffffffffffffffffffffffffffffff1673ffffffffffffffffffffffffffffffffffffffff16634e71e0c86040518163ffffffff167c0100000000000000000000000000000000000000000000000000000000028152600401600060405180830381600087803b1580156114fc57600080fd5b505af1158015611510573d6000803e3d6000fd5b50505050565b60008073ffffffffffffffffffffffffffffffffffffffff168373ffffffffffffffffffffffffffffffffffffffff16141515156115bc576040517f08c379a00000000000000000000000000000000000000000000000000000000081526004018080602001828103825260188152602001807f746f20616464726573732063616e6e6f7420626520307830000000000000000081525060200191505060405180910390fd5b6115c5336111ee565b821115151561163c576040517f08c379a000000000000000000000000000000000000000000000000000000000815260040180806020018281038252601e8152602001807f6e6f7420656e6f7567682062616c616e636520746f207472616e73666572000081525060200191505060405180910390fd5b6000809054906101000a900473ffffffffffffffffffffffffffffffffffffffff1673ffffffffffffffffffffffffffffffffffffffff1663cf8eeb7e33846040518363ffffffff167c0100000000000000000000000000000000000000000000000000000000028152600401808373ffffffffffffffffffffffffffffffffffffffff1673ffffffffffffffffffffffffffffffffffffffff16815260200182815260200192505050600060405180830381600087803b15801561170057600080fd5b505af1158015611714573d6000803e3d6000fd5b505050506000809054906101000a900473ffffffffffffffffffffffffffffffffffffffff1673ffffffffffffffffffffffffffffffffffffffff166321e5383a84846040518363ffffffff167c0100000000000000000000000000000000000000000000000000000000028152600401808373ffffffffffffffffffffffffffffffffffffffff1673ffffffffffffffffffffffffffffffffffffffff16815260200182815260200192505050600060405180830381600087803b1580156117dc57600080fd5b505af11580156117f0573d6000803e3d6000fd5b505050508273ffffffffffffffffffffffffffffffffffffffff163373ffffffffffffffffffffffffffffffffffffffff167fddf252ad1be2c89b69c2b068fc378daa952ba7f163c4a11628f55a4df523b3ef846040518082815260200191505060405180910390a36001905092915050565b6000600160009054906101000a900473ffffffffffffffffffffffffffffffffffffffff1673ffffffffffffffffffffffffffffffffffffffff16631a46ec8284846040518363ffffffff167c0100000000000000000000000000000000000000000000000000000000028152600401808373ffffffffffffffffffffffffffffffffffffffff1673ffffffffffffffffffffffffffffffffffffffff1681526020018273ffffffffffffffffffffffffffffffffffffffff1673ffffffffffffffffffffffffffffffffffffffff16815260200192505050602060405180830381600087803b15801561195657600080fd5b505af115801561196a573d6000803e3d6000fd5b505050506040513d602081101561198057600080fd5b8101908080519060200190929190505050905092915050565b600660009054906101000a900473ffffffffffffffffffffffffffffffffffffffff1681565b600560009054906101000a900473ffffffffffffffffffffffffffffffffffffffff1673ffffffffffffffffffffffffffffffffffffffff163373ffffffffffffffffffffffffffffffffffffffff16141515611a84576040517f08c379a00000000000000000000000000000000000000000000000000000000081526004018080602001828103825260148152602001807f4163636f756e74206973206e6f74206f776e657200000000000000000000000081525060200191505060405180910390fd5b600073ffffffffffffffffffffffffffffffffffffffff168173ffffffffffffffffffffffffffffffffffffffff1614151515611b29576040517f08c379a000000000000000000000000000000000000000000000000000000000815260040180806020018281038252600d8152602001807f456d70747920616464726573730000000000000000000000000000000000000081525060200191505060405180910390fd5b80600660006101000a81548173ffffffffffffffffffffffffffffffffffffffff021916908373ffffffffffffffffffffffffffffffffffffffff16021790555050565b6000809054906101000a900473ffffffffffffffffffffffffffffffffffffffff1673ffffffffffffffffffffffffffffffffffffffff1663e468688e826040518263ffffffff167c010000000000000000000000000000000000000000000000000000000002815260040180828152602001915050600060405180830381600087803b158015611bfd57600080fd5b505af1158015611c11573d6000803e3d6000fd5b505050506000809054906101000a900473ffffffffffffffffffffffffffffffffffffffff1673ffffffffffffffffffffffffffffffffffffffff166321e5383a83836040518363ffffffff167c0100000000000000000000000000000000000000000000000000000000028152600401808373ffffffffffffffffffffffffffffffffffffffff1673ffffffffffffffffffffffffffffffffffffffff16815260200182815260200192505050600060405180830381600087803b158015611cd957600080fd5b505af1158015611ced573d6000803e3d6000fd5b505050508173ffffffffffffffffffffffffffffffffffffffff167f0f6798a560793a54c3bcfe86a93cde1e73087d944c0ea20544137d4121396885826040518082815260200191505060405180910390a28173ffffffffffffffffffffffffffffffffffffffff16600073ffffffffffffffffffffffffffffffffffffffff167fddf252ad1be2c89b69c2b068fc378daa952ba7f163c4a11628f55a4df523b3ef836040518082815260200191505060405180910390a35050565b611db2826111ee565b8111151515611e29576040517f08c379a000000000000000000000000000000000000000000000000000000000815260040180806020018281038252601a8152602001807f6e6f7420656e6f7567682062616c616e636520746f206275726e00000000000081525060200191505060405180910390fd5b6000809054906101000a900473ffffffffffffffffffffffffffffffffffffffff1673ffffffffffffffffffffffffffffffffffffffff1663cf8eeb7e83836040518363ffffffff167c0100000000000000000000000000000000000000000000000000000000028152600401808373ffffffffffffffffffffffffffffffffffffffff1673ffffffffffffffffffffffffffffffffffffffff16815260200182815260200192505050600060405180830381600087803b158015611eed57600080fd5b505af1158015611f01573d6000803e3d6000fd5b505050506000809054906101000a900473ffffffffffffffffffffffffffffffffffffffff1673ffffffffffffffffffffffffffffffffffffffff166382838c76826040518263ffffffff167c010000000000000000000000000000000000000000000000000000000002815260040180828152602001915050600060405180830381600087803b158015611f9557600080fd5b505af1158015611fa9573d6000803e3d6000fd5b505050508173ffffffffffffffffffffffffffffffffffffffff167fcc16f5dbb4873280815c1ee09dbd06736cffcc184412cf7a71a0fdb75d397ca5826040518082815260200191505060405180910390a2600073ffffffffffffffffffffffffffffffffffffffff168273ffffffffffffffffffffffffffffffffffffffff167fddf252ad1be2c89b69c2b068fc378daa952ba7f163c4a11628f55a4df523b3ef836040518082815260200191505060405180910390a350505600a165627a7a72305820454b8424c5f5dff607f13f5461612e00b0bef5d1ef47c370eb5ad424dd7e5bb70029",
  "source": "pragma solidity ^0.4.24;\n\nimport \"./dataStorage/TokenStorage.sol\";\nimport \"openzeppelin-solidity/contracts/math/SafeMath.sol\";\nimport \"openzeppelin-solidity/contracts/AddressUtils.sol\";\nimport \"openzeppelin-solidity/contracts/token/ERC20/ERC20.sol\";\nimport \"../helpers/Ownable.sol\";\n\n/**\n* @title AkropolisBaseToken\n* @notice A basic ERC20 token with modular data storage\n*/\ncontract AkropolisBaseToken is ERC20, TokenStorage, Ownable {\n    using SafeMath for uint256;\n\n    /** Events */\n    event Mint(address indexed to, uint256 value);\n    event Burn(address indexed burner, uint256 value);\n    event Transfer(address indexed from, address indexed to, uint256 value);\n    event Approval(address indexed owner, address indexed spender, uint256 value);\n\n\n    constructor (address _balances, address _allowances, string _name, uint8 _decimals, string _symbol) public \n    TokenStorage(_balances, _allowances, _name, _decimals, _symbol) {}\n\n    /** Modifiers **/\n\n    /** Functions **/\n\n    function mint(address _to, uint256 _amount) public onlyOwner {\n        return _mint(_to, _amount);\n    }\n\n    function burn(uint256 _amount) public {\n        _burn(msg.sender, _amount);\n    }\n\n    function approve(address _spender, uint256 _value) \n    public returns (bool) {\n        allowances.setAllowance(msg.sender, _spender, _value);\n        emit Approval(msg.sender, _spender, _value);\n        return true;\n    }\n\n    function transfer(address _to, uint256 _amount) public returns (bool) {\n        require(_to != address(0),\"to address cannot be 0x0\");\n        require(_amount <= balanceOf(msg.sender),\"not enough balance to transfer\");\n\n        balances.subBalance(msg.sender, _amount);\n        balances.addBalance(_to, _amount);\n        emit Transfer(msg.sender, _to, _amount);\n        return true;\n    }\n\n    function transferFrom(address _from, address _to, uint256 _amount) \n    public returns (bool) {\n        require(_amount <= allowance(_from, msg.sender),\"not enough allowance to transfer\");\n        require(_to != address(0),\"to address cannot be 0x0\");\n        require(_amount <= balanceOf(_from),\"not enough balance to transfer\");\n        \n        allowances.subAllowance(_from, msg.sender, _amount);\n        balances.addBalance(_to, _amount);\n        balances.subBalance(_from, _amount);\n        emit Transfer(_from, _to, _amount);\n        return true;\n    }\n\n    /**\n    * @notice Implements balanceOf() as specified in the ERC20 standard.\n    */\n    function balanceOf(address who) public view returns (uint256) {\n        return balances.balanceOf(who);\n    }\n\n    /**\n    * @notice Implements allowance() as specified in the ERC20 standard.\n    */\n    function allowance(address owner, address spender) public view returns (uint256) {\n        return allowances.allowanceOf(owner, spender);\n    }\n\n    /**\n    * @notice Implements totalSupply() as specified in the ERC20 standard.\n    */\n    function totalSupply() public view returns (uint256) {\n        return balances.totalSupply();\n    }\n\n\n    /** Internal functions **/\n\n    function _burn(address _tokensOf, uint256 _amount) internal {\n        require(_amount <= balanceOf(_tokensOf),\"not enough balance to burn\");\n        // no need to require value <= totalSupply, since that would imply the\n        // sender's balance is greater than the totalSupply, which *should* be an assertion failure\n        balances.subBalance(_tokensOf, _amount);\n        balances.subTotalSupply(_amount);\n        emit Burn(_tokensOf, _amount);\n        emit Transfer(_tokensOf, address(0), _amount);\n    }\n\n    function _mint(address _to, uint256 _amount) internal {\n        balances.addTotalSupply(_amount);\n        balances.addBalance(_to, _amount);\n        emit Mint(_to, _amount);\n        emit Transfer(address(0), _to, _amount);\n    }\n\n}",
  "sourcePath": "/Users/alexandermazaletskiy/Documents/Akropolis/UpgradeableERC20/contracts/token/AkropolisBaseToken.sol",
  "compiler": {
    "name": "solc",
    "version": "0.4.24+commit.e67f0147.Emscripten.clang"
  },
  "schemaVersion": "2.0.1",
  "updatedAt": "2019-01-07T11:19:30.464Z"
}