{
  "contractName": "DelayedUpgradeabilityProxy",
  "abi": [
    {
      "constant": true,
      "inputs": [],
      "name": "pendingImplementationIsSet",
      "outputs": [
        {
          "name": "",
          "type": "bool"
        }
      ],
      "payable": false,
      "stateMutability": "view",
      "type": "function"
    },
    {
      "constant": true,
      "inputs": [],
      "name": "pendingImplementationApplicationDate",
      "outputs": [
        {
          "name": "",
          "type": "uint256"
        }
      ],
      "payable": false,
      "stateMutability": "view",
      "type": "function"
    },
    {
      "constant": true,
      "inputs": [],
      "name": "pendingImplementation",
      "outputs": [
        {
          "name": "",
          "type": "address"
        }
      ],
      "payable": false,
      "stateMutability": "view",
      "type": "function"
    },
    {
      "constant": true,
      "inputs": [],
      "name": "UPGRADE_DELAY",
      "outputs": [
        {
          "name": "",
          "type": "uint256"
        }
      ],
      "payable": false,
      "stateMutability": "view",
      "type": "function"
    },
    {
      "inputs": [
        {
          "name": "_implementation",
          "type": "address"
        }
      ],
      "payable": false,
      "stateMutability": "nonpayable",
      "type": "constructor"
    },
    {
      "payable": true,
      "stateMutability": "payable",
      "type": "fallback"
    },
    {
      "anonymous": false,
      "inputs": [
        {
          "indexed": true,
          "name": "oldPendingImplementation",
          "type": "address"
        },
        {
          "indexed": true,
          "name": "newPendingImplementation",
          "type": "address"
        }
      ],
      "name": "PendingImplementationChanged",
      "type": "event"
    },
    {
      "anonymous": false,
      "inputs": [
        {
          "indexed": false,
          "name": "implementation",
          "type": "address"
        }
      ],
      "name": "Upgraded",
      "type": "event"
    }
  ],
  "bytecode": "0x60806040526224ea0060025534801561001757600080fd5b506040516020806105ef833981018060405281019080805190602001909291905050508060405180807f6f72672e7a657070656c696e6f732e70726f78792e696d706c656d656e74617481526020017f696f6e000000000000000000000000000000000000000000000000000000000081525060230190506040518091039020600019167f7050c9e0f4ca769c69bd3a8ef740bc37934f8e2c036e5a723fd8ee048ed3f8c3600102600019161415156100cc57fe5b6100e4816100eb640100000000026401000000009004565b50506101e3565b6000610109826101d0640100000000026103be176401000000009004565b15156101a3576040517f08c379a000000000000000000000000000000000000000000000000000000000815260040180806020018281038252603b8152602001807f43616e6e6f742073657420612070726f787920696d706c656d656e746174696f81526020017f6e20746f2061206e6f6e2d636f6e74726163742061646472657373000000000081525060400191505060405180910390fd5b7f7050c9e0f4ca769c69bd3a8ef740bc37934f8e2c036e5a723fd8ee048ed3f8c360010290508181555050565b600080823b905060008111915050919050565b6103fd806101f26000396000f300608060405260043610610062576000357c0100000000000000000000000000000000000000000000000000000000900463ffffffff1680630fdca7f01461006c57806312c3c5bd1461009b578063396f7b23146100c657806347fe8b1d1461011d575b61006a610148565b005b34801561007857600080fd5b50610081610162565b604051808215151515815260200191505060405180910390f35b3480156100a757600080fd5b506100b0610175565b6040518082815260200191505060405180910390f35b3480156100d257600080fd5b506100db61017b565b604051808273ffffffffffffffffffffffffffffffffffffffff1673ffffffffffffffffffffffffffffffffffffffff16815260200191505060405180910390f35b34801561012957600080fd5b506101326101a0565b6040518082815260200191505060405180910390f35b6101506101a6565b61016061015b610224565b610255565b565b600060149054906101000a900460ff1681565b60015481565b6000809054906101000a900473ffffffffffffffffffffffffffffffffffffffff1681565b60025481565b600060149054906101000a900460ff1680156101c3575060015442115b15610219576101f26000809054906101000a900473ffffffffffffffffffffffffffffffffffffffff1661027b565b60008060146101000a81548160ff0219169083151502179055506102146102ea565b610222565b6102216102ea565b5b565b6000807f7050c9e0f4ca769c69bd3a8ef740bc37934f8e2c036e5a723fd8ee048ed3f8c36001029050805491505090565b3660008037600080366000845af43d6000803e8060008114610276573d6000f35b3d6000fd5b610284816102ec565b7fbc7cd75a20ee27fd9adebab32041f755214dbc6bffa90cc0225b39da2e5c2d3b81604051808273ffffffffffffffffffffffffffffffffffffffff1673ffffffffffffffffffffffffffffffffffffffff16815260200191505060405180910390a150565b565b60006102f7826103be565b1515610391576040517f08c379a000000000000000000000000000000000000000000000000000000000815260040180806020018281038252603b8152602001807f43616e6e6f742073657420612070726f787920696d706c656d656e746174696f81526020017f6e20746f2061206e6f6e2d636f6e74726163742061646472657373000000000081525060400191505060405180910390fd5b7f7050c9e0f4ca769c69bd3a8ef740bc37934f8e2c036e5a723fd8ee048ed3f8c360010290508181555050565b600080823b9050600081119150509190505600a165627a7a723058207ec9e96fe3eada7e4e50138543c09a57e2d9d5786af678a5f4af605b93283d710029",
  "source": "pragma solidity ^0.4.24;\n\nimport \"zos-lib/contracts/upgradeability/UpgradeabilityProxy.sol\";\nimport \"openzeppelin-solidity/contracts/math/SafeMath.sol\";\n\n/** \n * @title DelayedUpgradeabilityProxy\n * @notice Implements an upgradeability proxy with the option of\n * introducing pending implementations. \n */\ncontract DelayedUpgradeabilityProxy is UpgradeabilityProxy {\n    using SafeMath for uint256;\n\n    address public pendingImplementation;\n    bool public pendingImplementationIsSet;\n    uint256 public pendingImplementationApplicationDate; // Date on which to switch all contract calls to the new implementation\n    uint256 public UPGRADE_DELAY = 4 weeks;\n\n    event PendingImplementationChanged(address indexed oldPendingImplementation, address indexed newPendingImplementation);\n\n    constructor(address _implementation) public UpgradeabilityProxy(_implementation) {}\n\n    /**\n    * @notice Sets the pending implementation address of the proxy.\n    * This function is internal--uses of this proxy should wrap this function\n    * with a public function in order to make it externally callable.\n    * @param implementation Address of the new implementation.\n    */\n    function _setPendingUpgrade(address implementation) internal {\n        address oldPendingImplementation = pendingImplementation;\n        pendingImplementation = implementation;\n        pendingImplementationIsSet = true;\n        emit PendingImplementationChanged(oldPendingImplementation, implementation);\n        pendingImplementationApplicationDate = block.timestamp.add(UPGRADE_DELAY);\n    }\n\n    /**\n    * @notice Overrides the _willFallback() function of Proxy, which enables some code to\n    * be executed prior to the fallback function. In this case, the purpose of this code\n    * is to automatically switch the implementation to the pending implementation if the \n    * wait period of UPGRADE_DELAY (28 days) has been satisfied.\n    */\n    function _willFallback() internal {\n        if (pendingImplementationIsSet && block.timestamp > pendingImplementationApplicationDate) {\n            _upgradeTo(pendingImplementation);\n            pendingImplementationIsSet = false;\n            super._willFallback();\n        }\n        else {\n            super._willFallback();\n        }\n    }\n}\n",
  "sourcePath": "/Users/alexandermazaletskiy/Documents/Akropolis/UpgradeableERC20/contracts/upgradeability/DelayedUpgradeabilityProxy.sol",
  "compiler": {
    "name": "solc",
    "version": "0.4.24+commit.e67f0147.Emscripten.clang"
  },
  "schemaVersion": "2.0.1",
  "updatedAt": "2019-01-07T10:40:06.731Z"
}