{
  "contractName": "DummyContractV0",
  "abi": [
    {
      "constant": true,
      "inputs": [],
      "name": "hello",
      "outputs": [
        {
          "name": "",
          "type": "string"
        }
      ],
      "payable": false,
      "stateMutability": "pure",
      "type": "function"
    }
  ],
  "bytecode": "0x608060405234801561001057600080fd5b5061013f806100206000396000f300608060405260043610610041576000357c0100000000000000000000000000000000000000000000000000000000900463ffffffff16806319ff1d2114610046575b600080fd5b34801561005257600080fd5b5061005b6100d6565b6040518080602001828103825283818151815260200191508051906020019080838360005b8381101561009b578082015181840152602081019050610080565b50505050905090810190601f1680156100c85780820380516001836020036101000a031916815260200191505b509250505060405180910390f35b60606040805190810160405280600a81526020017f4b6f6e69636869776121000000000000000000000000000000000000000000008152509050905600a165627a7a723058203b7536a5a46b15780990bd823c1f14a97e6313db3ce2c14493d616f29efdb86e0029",
  "source": "pragma solidity ^0.4.24;\n\ncontract DummyContractV0 {\n    function hello() public pure returns(string) {\n        return \"Konichiwa!\";\n    }\n}\n\ncontract DummyContractV1 is DummyContractV0 {\n    function hello() public pure returns(string) {\n        return \"Hello!\";\n    }\n\n    function goodbye() public pure returns(string) {\n        return \"Adios\";\n    }\n}",
  "sourcePath": "/Users/alexandermazaletskiy/Documents/Akropolis/UpgradeableERC20/contracts/upgradeability/mocks/DummyContract.sol",
  "compiler": {
    "name": "solc",
    "version": "0.4.24+commit.e67f0147.Emscripten.clang"
  },
  "schemaVersion": "2.0.1",
  "updatedAt": "2019-01-07T11:19:30.469Z"
}