{
  "contractName": "TokenProxy",
  "abi": [
    {
      "constant": true,
      "inputs": [],
      "name": "name",
      "outputs": [
        {
          "name": "",
          "type": "string"
        }
      ],
      "payable": false,
      "stateMutability": "view",
      "type": "function"
    },
    {
      "constant": true,
      "inputs": [],
      "name": "decimals",
      "outputs": [
        {
          "name": "",
          "type": "uint8"
        }
      ],
      "payable": false,
      "stateMutability": "view",
      "type": "function"
    },
    {
      "constant": true,
      "inputs": [],
      "name": "allowances",
      "outputs": [
        {
          "name": "",
          "type": "address"
        }
      ],
      "payable": false,
      "stateMutability": "view",
      "type": "function"
    },
    {
      "constant": false,
      "inputs": [],
      "name": "claimOwnership",
      "outputs": [],
      "payable": false,
      "stateMutability": "nonpayable",
      "type": "function"
    },
    {
      "constant": true,
      "inputs": [],
      "name": "balances",
      "outputs": [
        {
          "name": "",
          "type": "address"
        }
      ],
      "payable": false,
      "stateMutability": "view",
      "type": "function"
    },
    {
      "constant": false,
      "inputs": [],
      "name": "claimBalanceOwnership",
      "outputs": [],
      "payable": false,
      "stateMutability": "nonpayable",
      "type": "function"
    },
    {
      "constant": true,
      "inputs": [],
      "name": "owner",
      "outputs": [
        {
          "name": "",
          "type": "address"
        }
      ],
      "payable": false,
      "stateMutability": "view",
      "type": "function"
    },
    {
      "constant": true,
      "inputs": [],
      "name": "symbol",
      "outputs": [
        {
          "name": "",
          "type": "string"
        }
      ],
      "payable": false,
      "stateMutability": "view",
      "type": "function"
    },
    {
      "constant": false,
      "inputs": [],
      "name": "claimAllowanceOwnership",
      "outputs": [],
      "payable": false,
      "stateMutability": "nonpayable",
      "type": "function"
    },
    {
      "constant": true,
      "inputs": [],
      "name": "pendingOwner",
      "outputs": [
        {
          "name": "",
          "type": "address"
        }
      ],
      "payable": false,
      "stateMutability": "view",
      "type": "function"
    },
    {
      "constant": false,
      "inputs": [
        {
          "name": "_newOwner",
          "type": "address"
        }
      ],
      "name": "transferOwnership",
      "outputs": [],
      "payable": false,
      "stateMutability": "nonpayable",
      "type": "function"
    },
    {
      "inputs": [
        {
          "name": "_implementation",
          "type": "address"
        },
        {
          "name": "_balances",
          "type": "address"
        },
        {
          "name": "_allowances",
          "type": "address"
        },
        {
          "name": "_name",
          "type": "string"
        },
        {
          "name": "_decimals",
          "type": "uint8"
        },
        {
          "name": "_symbol",
          "type": "string"
        }
      ],
      "payable": false,
      "stateMutability": "nonpayable",
      "type": "constructor"
    },
    {
      "payable": true,
      "stateMutability": "payable",
      "type": "fallback"
    },
    {
      "anonymous": false,
      "inputs": [
        {
          "indexed": true,
          "name": "previousOwner",
          "type": "address"
        },
        {
          "indexed": true,
          "name": "newOwner",
          "type": "address"
        }
      ],
      "name": "OwnershipTransferred",
      "type": "event"
    },
    {
      "anonymous": false,
      "inputs": [
        {
          "indexed": false,
          "name": "implementation",
          "type": "address"
        }
      ],
      "name": "Upgraded",
      "type": "event"
    },
    {
      "constant": false,
      "inputs": [
        {
          "name": "newImplementation",
          "type": "address"
        }
      ],
      "name": "upgradeTo",
      "outputs": [],
      "payable": false,
      "stateMutability": "nonpayable",
      "type": "function"
    },
    {
      "constant": true,
      "inputs": [],
      "name": "implementation",
      "outputs": [
        {
          "name": "",
          "type": "address"
        }
      ],
      "payable": false,
      "stateMutability": "view",
      "type": "function"
    }
  ],
  "bytecode": "0x60806040523480156200001157600080fd5b50604051620010dc380380620010dc83398101806040528101908080519060200190929190805190602001909291908051906020019092919080518201929190602001805190602001909291908051820192919050505084848760405180807f6f72672e7a657070656c696e6f732e70726f78792e696d706c656d656e74617481526020017f696f6e000000000000000000000000000000000000000000000000000000000081525060230190506040518091039020600019167f7050c9e0f4ca769c69bd3a8ef740bc37934f8e2c036e5a723fd8ee048ed3f8c360010260001916141515620000fd57fe5b620001178162000277640100000000026401000000009004565b50816000806101000a81548173ffffffffffffffffffffffffffffffffffffffff021916908373ffffffffffffffffffffffffffffffffffffffff16021790555080600160006101000a81548173ffffffffffffffffffffffffffffffffffffffff021916908373ffffffffffffffffffffffffffffffffffffffff160217905550505033600260006101000a81548173ffffffffffffffffffffffffffffffffffffffff021916908373ffffffffffffffffffffffffffffffffffffffff1602179055506000600360006101000a81548173ffffffffffffffffffffffffffffffffffffffff021916908373ffffffffffffffffffffffffffffffffffffffff16021790555082600490805190602001906200023692919062000373565b5081600560006101000a81548160ff021916908360ff16021790555080600690805190602001906200026a92919062000373565b5050505050505062000422565b60006200029882620003606401000000000262000c6b176401000000009004565b151562000333576040517f08c379a000000000000000000000000000000000000000000000000000000000815260040180806020018281038252603b8152602001807f43616e6e6f742073657420612070726f787920696d706c656d656e746174696f81526020017f6e20746f2061206e6f6e2d636f6e74726163742061646472657373000000000081525060400191505060405180910390fd5b7f7050c9e0f4ca769c69bd3a8ef740bc37934f8e2c036e5a723fd8ee048ed3f8c360010290508181555050565b600080823b905060008111915050919050565b828054600181600116156101000203166002900490600052602060002090601f016020900481019282601f10620003b657805160ff1916838001178555620003e7565b82800160010185558215620003e7579182015b82811115620003e6578251825591602001919060010190620003c9565b5b509050620003f69190620003fa565b5090565b6200041f91905b808211156200041b57600081600090555060010162000401565b5090565b90565b610caa80620004326000396000f3006080604052600436106100c5576000357c0100000000000000000000000000000000000000000000000000000000900463ffffffff16806306fdde03146100cf578063313ce5671461015f5780633659cfe6146101905780633ed10b92146101d35780634e71e0c81461022a5780635c60da1b146102415780637bb98a68146102985780638955ed7e146102ef5780638da5cb5b1461030657806395d89b411461035d5780639b2bdc20146103ed578063e30c397814610404578063f2fde38b1461045b575b6100cd61049e565b005b3480156100db57600080fd5b506100e46104b8565b6040518080602001828103825283818151815260200191508051906020019080838360005b83811015610124578082015181840152602081019050610109565b50505050905090810190601f1680156101515780820380516001836020036101000a031916815260200191505b509250505060405180910390f35b34801561016b57600080fd5b50610174610556565b604051808260ff1660ff16815260200191505060405180910390f35b34801561019c57600080fd5b506101d1600480360381019080803573ffffffffffffffffffffffffffffffffffffffff169060200190929190505050610569565b005b3480156101df57600080fd5b506101e86105d1565b604051808273ffffffffffffffffffffffffffffffffffffffff1673ffffffffffffffffffffffffffffffffffffffff16815260200191505060405180910390f35b34801561023657600080fd5b5061023f6105f7565b005b34801561024d57600080fd5b50610256610798565b604051808273ffffffffffffffffffffffffffffffffffffffff1673ffffffffffffffffffffffffffffffffffffffff16815260200191505060405180910390f35b3480156102a457600080fd5b506102ad6107a7565b604051808273ffffffffffffffffffffffffffffffffffffffff1673ffffffffffffffffffffffffffffffffffffffff16815260200191505060405180910390f35b3480156102fb57600080fd5b506103046107cc565b005b34801561031257600080fd5b5061031b61086b565b604051808273ffffffffffffffffffffffffffffffffffffffff1673ffffffffffffffffffffffffffffffffffffffff16815260200191505060405180910390f35b34801561036957600080fd5b50610372610891565b6040518080602001828103825283818151815260200191508051906020019080838360005b838110156103b2578082015181840152602081019050610397565b50505050905090810190601f1680156103df5780820380516001836020036101000a031916815260200191505b509250505060405180910390f35b3480156103f957600080fd5b5061040261092f565b005b34801561041057600080fd5b506104196109cf565b604051808273ffffffffffffffffffffffffffffffffffffffff1673ffffffffffffffffffffffffffffffffffffffff16815260200191505060405180910390f35b34801561046757600080fd5b5061049c600480360381019080803573ffffffffffffffffffffffffffffffffffffffff1690602001909291905050506109f5565b005b6104a6610ad1565b6104b66104b1610ad3565b610b04565b565b60048054600181600116156101000203166002900480601f01602080910402602001604051908101604052809291908181526020018280546001816001161561010002031660029004801561054e5780601f106105235761010080835404028352916020019161054e565b820191906000526020600020905b81548152906001019060200180831161053157829003601f168201915b505050505081565b600560009054906101000a900460ff1681565b600260009054906101000a900473ffffffffffffffffffffffffffffffffffffffff1673ffffffffffffffffffffffffffffffffffffffff163373ffffffffffffffffffffffffffffffffffffffff161415156105c557600080fd5b6105ce81610b2a565b50565b600160009054906101000a900473ffffffffffffffffffffffffffffffffffffffff1681565b600360009054906101000a900473ffffffffffffffffffffffffffffffffffffffff1673ffffffffffffffffffffffffffffffffffffffff163373ffffffffffffffffffffffffffffffffffffffff1614151561065357600080fd5b600360009054906101000a900473ffffffffffffffffffffffffffffffffffffffff1673ffffffffffffffffffffffffffffffffffffffff16600260009054906101000a900473ffffffffffffffffffffffffffffffffffffffff1673ffffffffffffffffffffffffffffffffffffffff167f8be0079c531659141344cd1fd0a4f28419497f9722a3daafe3b4186f6b6457e060405160405180910390a3600360009054906101000a900473ffffffffffffffffffffffffffffffffffffffff16600260006101000a81548173ffffffffffffffffffffffffffffffffffffffff021916908373ffffffffffffffffffffffffffffffffffffffff1602179055506000600360006101000a81548173ffffffffffffffffffffffffffffffffffffffff021916908373ffffffffffffffffffffffffffffffffffffffff160217905550565b60006107a2610ad3565b905090565b6000809054906101000a900473ffffffffffffffffffffffffffffffffffffffff1681565b6000809054906101000a900473ffffffffffffffffffffffffffffffffffffffff1673ffffffffffffffffffffffffffffffffffffffff16634e71e0c86040518163ffffffff167c0100000000000000000000000000000000000000000000000000000000028152600401600060405180830381600087803b15801561085157600080fd5b505af1158015610865573d6000803e3d6000fd5b50505050565b600260009054906101000a900473ffffffffffffffffffffffffffffffffffffffff1681565b60068054600181600116156101000203166002900480601f0160208091040260200160405190810160405280929190818152602001828054600181600116156101000203166002900480156109275780601f106108fc57610100808354040283529160200191610927565b820191906000526020600020905b81548152906001019060200180831161090a57829003601f168201915b505050505081565b600160009054906101000a900473ffffffffffffffffffffffffffffffffffffffff1673ffffffffffffffffffffffffffffffffffffffff16634e71e0c86040518163ffffffff167c0100000000000000000000000000000000000000000000000000000000028152600401600060405180830381600087803b1580156109b557600080fd5b505af11580156109c9573d6000803e3d6000fd5b50505050565b600360009054906101000a900473ffffffffffffffffffffffffffffffffffffffff1681565b600260009054906101000a900473ffffffffffffffffffffffffffffffffffffffff1673ffffffffffffffffffffffffffffffffffffffff163373ffffffffffffffffffffffffffffffffffffffff16141515610a5157600080fd5b600073ffffffffffffffffffffffffffffffffffffffff168173ffffffffffffffffffffffffffffffffffffffff1614151515610a8d57600080fd5b80600360006101000a81548173ffffffffffffffffffffffffffffffffffffffff021916908373ffffffffffffffffffffffffffffffffffffffff16021790555050565b565b6000807f7050c9e0f4ca769c69bd3a8ef740bc37934f8e2c036e5a723fd8ee048ed3f8c36001029050805491505090565b3660008037600080366000845af43d6000803e8060008114610b25573d6000f35b3d6000fd5b610b3381610b99565b7fbc7cd75a20ee27fd9adebab32041f755214dbc6bffa90cc0225b39da2e5c2d3b81604051808273ffffffffffffffffffffffffffffffffffffffff1673ffffffffffffffffffffffffffffffffffffffff16815260200191505060405180910390a150565b6000610ba482610c6b565b1515610c3e576040517f08c379a000000000000000000000000000000000000000000000000000000000815260040180806020018281038252603b8152602001807f43616e6e6f742073657420612070726f787920696d706c656d656e746174696f81526020017f6e20746f2061206e6f6e2d636f6e74726163742061646472657373000000000081525060400191505060405180910390fd5b7f7050c9e0f4ca769c69bd3a8ef740bc37934f8e2c036e5a723fd8ee048ed3f8c360010290508181555050565b600080823b9050600081119150509190505600a165627a7a7230582063e98924d20905dd1e3e1befb22256ae8354f9424a2e0f7dd1f8de997e231f1a0029",
  "source": "pragma solidity ^0.4.24;\n\nimport \"./dataStorage/TokenStorage.sol\";\nimport \"zos-lib/contracts/upgradeability/UpgradeabilityProxy.sol\";\nimport '../helpers/Ownable.sol';\n\n/**\n* @title TokenProxy\n* @notice A proxy contract that serves the latest implementation of TokenProxy.\n*/\ncontract TokenProxy is UpgradeabilityProxy, TokenStorage, Ownable {\n\n    string public name;                   \n    uint8  public decimals;                \n    string public symbol;\n\n    constructor(address _implementation, address _balances, address _allowances, string _name, uint8 _decimals, string _symbol) \n    UpgradeabilityProxy(_implementation) \n    TokenStorage(_balances, _allowances) public {\n       name = _name;\n       decimals = _decimals;\n       symbol = _symbol;\n    }\n\n    /**\n    * @dev Upgrade the backing implementation of the proxy.\n    * Only the admin can call this function.\n    * @param newImplementation Address of the new implementation.\n    */\n    function upgradeTo(address newImplementation) public onlyOwner {\n        _upgradeTo(newImplementation);\n    }\n\n    /**\n    * @return The address of the implementation.\n    */\n    function implementation() public view returns (address) {\n        return _implementation();\n    }\n}",
  "sourcePath": "/Users/alexandermazaletskiy/Documents/Akropolis/UpgradeableERC20/contracts/token/TokenProxy.sol",
  "compiler": {
    "name": "solc",
    "version": "0.4.24+commit.e67f0147.Emscripten.clang"
  },
  "schemaVersion": "2.0.1",
  "updatedAt": "2018-12-17T15:48:28.373Z"
}