{
  "contractName": "TokenProxy",
  "abi": [
    {
      "constant": true,
      "inputs": [],
      "name": "allowances",
      "outputs": [
        {
          "name": "",
          "type": "address"
        }
      ],
      "payable": false,
      "stateMutability": "view",
      "type": "function"
    },
    {
      "constant": false,
      "inputs": [],
      "name": "claimOwnership",
      "outputs": [],
      "payable": false,
      "stateMutability": "nonpayable",
      "type": "function"
    },
    {
      "constant": true,
      "inputs": [],
      "name": "balances",
      "outputs": [
        {
          "name": "",
          "type": "address"
        }
      ],
      "payable": false,
      "stateMutability": "view",
      "type": "function"
    },
    {
      "constant": false,
      "inputs": [],
      "name": "claimBalanceOwnership",
      "outputs": [],
      "payable": false,
      "stateMutability": "nonpayable",
      "type": "function"
    },
    {
      "constant": true,
      "inputs": [],
      "name": "owner",
      "outputs": [
        {
          "name": "",
          "type": "address"
        }
      ],
      "payable": false,
      "stateMutability": "view",
      "type": "function"
    },
    {
      "constant": false,
      "inputs": [],
      "name": "claimAllowanceOwnership",
      "outputs": [],
      "payable": false,
      "stateMutability": "nonpayable",
      "type": "function"
    },
    {
      "constant": true,
      "inputs": [],
      "name": "pendingOwner",
      "outputs": [
        {
          "name": "",
          "type": "address"
        }
      ],
      "payable": false,
      "stateMutability": "view",
      "type": "function"
    },
    {
      "constant": false,
      "inputs": [
        {
          "name": "_newOwner",
          "type": "address"
        }
      ],
      "name": "transferOwnership",
      "outputs": [],
      "payable": false,
      "stateMutability": "nonpayable",
      "type": "function"
    },
    {
      "inputs": [
        {
          "name": "_implementation",
          "type": "address"
        },
        {
          "name": "_balances",
          "type": "address"
        },
        {
          "name": "_allowances",
          "type": "address"
        },
        {
          "name": "_name",
          "type": "string"
        },
        {
          "name": "_decimals",
          "type": "uint8"
        },
        {
          "name": "_symbol",
          "type": "string"
        }
      ],
      "payable": false,
      "stateMutability": "nonpayable",
      "type": "constructor"
    },
    {
      "payable": true,
      "stateMutability": "payable",
      "type": "fallback"
    },
    {
      "anonymous": false,
      "inputs": [
        {
          "indexed": true,
          "name": "previousOwner",
          "type": "address"
        },
        {
          "indexed": true,
          "name": "newOwner",
          "type": "address"
        }
      ],
      "name": "OwnershipTransferred",
      "type": "event"
    },
    {
      "anonymous": false,
      "inputs": [
        {
          "indexed": false,
          "name": "implementation",
          "type": "address"
        }
      ],
      "name": "Upgraded",
      "type": "event"
    },
    {
      "constant": false,
      "inputs": [
        {
          "name": "newImplementation",
          "type": "address"
        }
      ],
      "name": "upgradeTo",
      "outputs": [],
      "payable": false,
      "stateMutability": "nonpayable",
      "type": "function"
    },
    {
      "constant": true,
      "inputs": [],
      "name": "implementation",
      "outputs": [
        {
          "name": "",
          "type": "address"
        }
      ],
      "payable": false,
      "stateMutability": "view",
      "type": "function"
    }
  ],
  "bytecode": "0x608060405234801561001057600080fd5b50604051610e01380380610e0183398101806040528101908080519060200190929190805190602001909291908051906020019092919080518201929190602001805190602001909291908051820192919050505084848760405180807f6f72672e7a657070656c696e6f732e70726f78792e696d706c656d656e74617481526020017f696f6e000000000000000000000000000000000000000000000000000000000081525060230190506040518091039020600019167f7050c9e0f4ca769c69bd3a8ef740bc37934f8e2c036e5a723fd8ee048ed3f8c3600102600019161415156100f957fe5b6101118161026c640100000000026401000000009004565b50816000806101000a81548173ffffffffffffffffffffffffffffffffffffffff021916908373ffffffffffffffffffffffffffffffffffffffff16021790555080600160006101000a81548173ffffffffffffffffffffffffffffffffffffffff021916908373ffffffffffffffffffffffffffffffffffffffff160217905550505033600260006101000a81548173ffffffffffffffffffffffffffffffffffffffff021916908373ffffffffffffffffffffffffffffffffffffffff1602179055506000600360006101000a81548173ffffffffffffffffffffffffffffffffffffffff021916908373ffffffffffffffffffffffffffffffffffffffff160217905550826004908051906020019061022e929190610364565b5081600560006101000a81548160ff021916908360ff1602179055508060069080519060200190610260929190610364565b50505050505050610409565b600061028a82610351640100000000026109aa176401000000009004565b1515610324576040517f08c379a000000000000000000000000000000000000000000000000000000000815260040180806020018281038252603b8152602001807f43616e6e6f742073657420612070726f787920696d706c656d656e746174696f81526020017f6e20746f2061206e6f6e2d636f6e74726163742061646472657373000000000081525060400191505060405180910390fd5b7f7050c9e0f4ca769c69bd3a8ef740bc37934f8e2c036e5a723fd8ee048ed3f8c360010290508181555050565b600080823b905060008111915050919050565b828054600181600116156101000203166002900490600052602060002090601f016020900481019282601f106103a557805160ff19168380011785556103d3565b828001600101855582156103d3579182015b828111156103d25782518255916020019190600101906103b7565b5b5090506103e091906103e4565b5090565b61040691905b808211156104025760008160009055506001016103ea565b5090565b90565b6109e9806104186000396000f3006080604052600436106100a4576000357c0100000000000000000000000000000000000000000000000000000000900463ffffffff1680633659cfe6146100ae5780633ed10b92146100f15780634e71e0c8146101485780635c60da1b1461015f5780637bb98a68146101b65780638955ed7e1461020d5780638da5cb5b146102245780639b2bdc201461027b578063e30c397814610292578063f2fde38b146102e9575b6100ac61032c565b005b3480156100ba57600080fd5b506100ef600480360381019080803573ffffffffffffffffffffffffffffffffffffffff169060200190929190505050610346565b005b3480156100fd57600080fd5b506101066103ae565b604051808273ffffffffffffffffffffffffffffffffffffffff1673ffffffffffffffffffffffffffffffffffffffff16815260200191505060405180910390f35b34801561015457600080fd5b5061015d6103d4565b005b34801561016b57600080fd5b50610174610575565b604051808273ffffffffffffffffffffffffffffffffffffffff1673ffffffffffffffffffffffffffffffffffffffff16815260200191505060405180910390f35b3480156101c257600080fd5b506101cb610584565b604051808273ffffffffffffffffffffffffffffffffffffffff1673ffffffffffffffffffffffffffffffffffffffff16815260200191505060405180910390f35b34801561021957600080fd5b506102226105a9565b005b34801561023057600080fd5b50610239610648565b604051808273ffffffffffffffffffffffffffffffffffffffff1673ffffffffffffffffffffffffffffffffffffffff16815260200191505060405180910390f35b34801561028757600080fd5b5061029061066e565b005b34801561029e57600080fd5b506102a761070e565b604051808273ffffffffffffffffffffffffffffffffffffffff1673ffffffffffffffffffffffffffffffffffffffff16815260200191505060405180910390f35b3480156102f557600080fd5b5061032a600480360381019080803573ffffffffffffffffffffffffffffffffffffffff169060200190929190505050610734565b005b610334610810565b61034461033f610812565b610843565b565b600260009054906101000a900473ffffffffffffffffffffffffffffffffffffffff1673ffffffffffffffffffffffffffffffffffffffff163373ffffffffffffffffffffffffffffffffffffffff161415156103a257600080fd5b6103ab81610869565b50565b600160009054906101000a900473ffffffffffffffffffffffffffffffffffffffff1681565b600360009054906101000a900473ffffffffffffffffffffffffffffffffffffffff1673ffffffffffffffffffffffffffffffffffffffff163373ffffffffffffffffffffffffffffffffffffffff1614151561043057600080fd5b600360009054906101000a900473ffffffffffffffffffffffffffffffffffffffff1673ffffffffffffffffffffffffffffffffffffffff16600260009054906101000a900473ffffffffffffffffffffffffffffffffffffffff1673ffffffffffffffffffffffffffffffffffffffff167f8be0079c531659141344cd1fd0a4f28419497f9722a3daafe3b4186f6b6457e060405160405180910390a3600360009054906101000a900473ffffffffffffffffffffffffffffffffffffffff16600260006101000a81548173ffffffffffffffffffffffffffffffffffffffff021916908373ffffffffffffffffffffffffffffffffffffffff1602179055506000600360006101000a81548173ffffffffffffffffffffffffffffffffffffffff021916908373ffffffffffffffffffffffffffffffffffffffff160217905550565b600061057f610812565b905090565b6000809054906101000a900473ffffffffffffffffffffffffffffffffffffffff1681565b6000809054906101000a900473ffffffffffffffffffffffffffffffffffffffff1673ffffffffffffffffffffffffffffffffffffffff16634e71e0c86040518163ffffffff167c0100000000000000000000000000000000000000000000000000000000028152600401600060405180830381600087803b15801561062e57600080fd5b505af1158015610642573d6000803e3d6000fd5b50505050565b600260009054906101000a900473ffffffffffffffffffffffffffffffffffffffff1681565b600160009054906101000a900473ffffffffffffffffffffffffffffffffffffffff1673ffffffffffffffffffffffffffffffffffffffff16634e71e0c86040518163ffffffff167c0100000000000000000000000000000000000000000000000000000000028152600401600060405180830381600087803b1580156106f457600080fd5b505af1158015610708573d6000803e3d6000fd5b50505050565b600360009054906101000a900473ffffffffffffffffffffffffffffffffffffffff1681565b600260009054906101000a900473ffffffffffffffffffffffffffffffffffffffff1673ffffffffffffffffffffffffffffffffffffffff163373ffffffffffffffffffffffffffffffffffffffff1614151561079057600080fd5b600073ffffffffffffffffffffffffffffffffffffffff168173ffffffffffffffffffffffffffffffffffffffff16141515156107cc57600080fd5b80600360006101000a81548173ffffffffffffffffffffffffffffffffffffffff021916908373ffffffffffffffffffffffffffffffffffffffff16021790555050565b565b6000807f7050c9e0f4ca769c69bd3a8ef740bc37934f8e2c036e5a723fd8ee048ed3f8c36001029050805491505090565b3660008037600080366000845af43d6000803e8060008114610864573d6000f35b3d6000fd5b610872816108d8565b7fbc7cd75a20ee27fd9adebab32041f755214dbc6bffa90cc0225b39da2e5c2d3b81604051808273ffffffffffffffffffffffffffffffffffffffff1673ffffffffffffffffffffffffffffffffffffffff16815260200191505060405180910390a150565b60006108e3826109aa565b151561097d576040517f08c379a000000000000000000000000000000000000000000000000000000000815260040180806020018281038252603b8152602001807f43616e6e6f742073657420612070726f787920696d706c656d656e746174696f81526020017f6e20746f2061206e6f6e2d636f6e74726163742061646472657373000000000081525060400191505060405180910390fd5b7f7050c9e0f4ca769c69bd3a8ef740bc37934f8e2c036e5a723fd8ee048ed3f8c360010290508181555050565b600080823b9050600081119150509190505600a165627a7a723058201815f5aa05cfd0c73965da98bf59c47d28e1e2fa432f530a7a687e0d1796c4af0029",
  "source": "pragma solidity ^0.4.24;\n\nimport \"./dataStorage/TokenStorage.sol\";\nimport \"zos-lib/contracts/upgradeability/UpgradeabilityProxy.sol\";\nimport '../helpers/Ownable.sol';\n\n/**\n* @title TokenProxy\n* @notice A proxy contract that serves the latest implementation of TokenProxy.\n*/\ncontract TokenProxy is UpgradeabilityProxy, TokenStorage, Ownable {\n\n    string private name;                   \n    uint8  private decimals;                \n    string private symbol;\n\n    constructor(address _implementation, address _balances, address _allowances, string _name, uint8 _decimals, string _symbol) \n    UpgradeabilityProxy(_implementation) \n    TokenStorage(_balances, _allowances) public {\n       name = _name;\n       decimals = _decimals;\n       symbol = _symbol;\n    }\n\n    /**\n    * @dev Upgrade the backing implementation of the proxy.\n    * Only the admin can call this function.\n    * @param newImplementation Address of the new implementation.\n    */\n    function upgradeTo(address newImplementation) public onlyOwner {\n        _upgradeTo(newImplementation);\n    }\n\n    /**\n    * @return The address of the implementation.\n    */\n    function implementation() public view returns (address) {\n        return _implementation();\n    }\n}",
  "sourcePath": "/Users/alexandermazaletskiy/Documents/Akropolis/UpgradeableERC20/contracts/token/TokenProxy.sol",
  "compiler": {
    "name": "solc",
    "version": "0.4.24+commit.e67f0147.Emscripten.clang"
  },
  "schemaVersion": "2.0.1",
  "updatedAt": "2018-12-17T15:38:49.962Z"
}