{
  "contractName": "Whitelist",
  "abi": [
    {
      "constant": false,
      "inputs": [],
      "name": "claimOwnership",
      "outputs": [],
      "payable": false,
      "stateMutability": "nonpayable",
      "type": "function"
    },
    {
      "constant": true,
      "inputs": [],
      "name": "owner",
      "outputs": [
        {
          "name": "",
          "type": "address"
        }
      ],
      "payable": false,
      "stateMutability": "view",
      "type": "function"
    },
    {
      "constant": true,
      "inputs": [],
      "name": "pendingOwner",
      "outputs": [
        {
          "name": "",
          "type": "address"
        }
      ],
      "payable": false,
      "stateMutability": "view",
      "type": "function"
    },
    {
      "constant": false,
      "inputs": [
        {
          "name": "_newOwner",
          "type": "address"
        }
      ],
      "name": "transferOwnership",
      "outputs": [],
      "payable": false,
      "stateMutability": "nonpayable",
      "type": "function"
    },
    {
      "anonymous": false,
      "inputs": [
        {
          "indexed": true,
          "name": "to",
          "type": "address"
        }
      ],
      "name": "AddToWhitelist",
      "type": "event"
    },
    {
      "anonymous": false,
      "inputs": [
        {
          "indexed": true,
          "name": "to",
          "type": "address"
        }
      ],
      "name": "RemoveFromWhitelist",
      "type": "event"
    },
    {
      "anonymous": false,
      "inputs": [],
      "name": "EnableWhitelist",
      "type": "event"
    },
    {
      "anonymous": false,
      "inputs": [],
      "name": "DisableWhitelist",
      "type": "event"
    },
    {
      "anonymous": false,
      "inputs": [
        {
          "indexed": true,
          "name": "previousOwner",
          "type": "address"
        },
        {
          "indexed": true,
          "name": "newOwner",
          "type": "address"
        }
      ],
      "name": "OwnershipTransferred",
      "type": "event"
    },
    {
      "constant": false,
      "inputs": [],
      "name": "enableWhitelist",
      "outputs": [],
      "payable": false,
      "stateMutability": "nonpayable",
      "type": "function"
    },
    {
      "constant": false,
      "inputs": [],
      "name": "disableWhitelist",
      "outputs": [],
      "payable": false,
      "stateMutability": "nonpayable",
      "type": "function"
    },
    {
      "constant": false,
      "inputs": [
        {
          "name": "_address",
          "type": "address"
        }
      ],
      "name": "addToWhitelist",
      "outputs": [],
      "payable": false,
      "stateMutability": "nonpayable",
      "type": "function"
    },
    {
      "constant": false,
      "inputs": [
        {
          "name": "_address",
          "type": "address"
        }
      ],
      "name": "removeFromWhitelist",
      "outputs": [],
      "payable": false,
      "stateMutability": "nonpayable",
      "type": "function"
    },
    {
      "constant": true,
      "inputs": [],
      "name": "isWhitelisted",
      "outputs": [
        {
          "name": "",
          "type": "bool"
        }
      ],
      "payable": false,
      "stateMutability": "view",
      "type": "function"
    }
  ],
  "bytecode": "0x6080604052336000806101000a81548173ffffffffffffffffffffffffffffffffffffffff021916908373ffffffffffffffffffffffffffffffffffffffff1602179055506000600160006101000a81548173ffffffffffffffffffffffffffffffffffffffff021916908373ffffffffffffffffffffffffffffffffffffffff160217905550610d81806100956000396000f300608060405260043610610099576000357c0100000000000000000000000000000000000000000000000000000000900463ffffffff1680634e71e0c81461009e578063611b4095146100b55780638ab1d681146100e45780638da5cb5b14610127578063cdfb2b4e1461017e578063d6b0f48414610195578063e30c3978146101ac578063e43252d714610203578063f2fde38b14610246575b600080fd5b3480156100aa57600080fd5b506100b3610289565b005b3480156100c157600080fd5b506100ca610491565b604051808215151515815260200191505060405180910390f35b3480156100f057600080fd5b50610125600480360381019080803573ffffffffffffffffffffffffffffffffffffffff169060200190929190505050610594565b005b34801561013357600080fd5b5061013c6106f6565b604051808273ffffffffffffffffffffffffffffffffffffffff1673ffffffffffffffffffffffffffffffffffffffff16815260200191505060405180910390f35b34801561018a57600080fd5b5061019361071b565b005b3480156101a157600080fd5b506101aa610817565b005b3480156101b857600080fd5b506101c1610913565b604051808273ffffffffffffffffffffffffffffffffffffffff1673ffffffffffffffffffffffffffffffffffffffff16815260200191505060405180910390f35b34801561020f57600080fd5b50610244600480360381019080803573ffffffffffffffffffffffffffffffffffffffff169060200190929190505050610939565b005b34801561025257600080fd5b50610287600480360381019080803573ffffffffffffffffffffffffffffffffffffffff169060200190929190505050610a9b565b005b600160009054906101000a900473ffffffffffffffffffffffffffffffffffffffff1673ffffffffffffffffffffffffffffffffffffffff163373ffffffffffffffffffffffffffffffffffffffff1614151561034e576040517f08c379a000000000000000000000000000000000000000000000000000000000815260040180806020018281038252601c8152602001807f4163636f756e74206973206e6f742070656e64696e67206f776e65720000000081525060200191505060405180910390fd5b600160009054906101000a900473ffffffffffffffffffffffffffffffffffffffff1673ffffffffffffffffffffffffffffffffffffffff166000809054906101000a900473ffffffffffffffffffffffffffffffffffffffff1673ffffffffffffffffffffffffffffffffffffffff167f8be0079c531659141344cd1fd0a4f28419497f9722a3daafe3b4186f6b6457e060405160405180910390a3600160009054906101000a900473ffffffffffffffffffffffffffffffffffffffff166000806101000a81548173ffffffffffffffffffffffffffffffffffffffff021916908373ffffffffffffffffffffffffffffffffffffffff1602179055506000600160006101000a81548173ffffffffffffffffffffffffffffffffffffffff021916908373ffffffffffffffffffffffffffffffffffffffff160217905550565b6000806000604051602001808060200180602001838103835260098152602001807f57686974656c69737400000000000000000000000000000000000000000000008152506020018381038252600b8152602001807f77686974656c6973746564000000000000000000000000000000000000000000815250602001925050506040516020818303038152906040526040518082805190602001908083835b6020831015156105555780518252602082019150602081019050602083039250610530565b6001836020036101000a038019825116818451168082178552505050505050905001915050604051809103902091508154905060008114159250505090565b6000809054906101000a900473ffffffffffffffffffffffffffffffffffffffff1673ffffffffffffffffffffffffffffffffffffffff163373ffffffffffffffffffffffffffffffffffffffff16141515610658576040517f08c379a00000000000000000000000000000000000000000000000000000000081526004018080602001828103825260148152602001807f4163636f756e74206973206e6f74206f776e657200000000000000000000000081525060200191505060405180910390fd5b6000600260008373ffffffffffffffffffffffffffffffffffffffff1673ffffffffffffffffffffffffffffffffffffffff16815260200190815260200160002060006101000a81548160ff0219169083151502179055508073ffffffffffffffffffffffffffffffffffffffff167f1f756c8b089af6b33ee121fee8badac2553a2fa89c0575ea91ff8792617746c260405160405180910390a250565b6000809054906101000a900473ffffffffffffffffffffffffffffffffffffffff1681565b6000809054906101000a900473ffffffffffffffffffffffffffffffffffffffff1673ffffffffffffffffffffffffffffffffffffffff163373ffffffffffffffffffffffffffffffffffffffff161415156107df576040517f08c379a00000000000000000000000000000000000000000000000000000000081526004018080602001828103825260148152602001807f4163636f756e74206973206e6f74206f776e657200000000000000000000000081525060200191505060405180910390fd5b6107e96001610c48565b7fa2927d972f7cfc5ff8b7ad79f9adf0bdb885d0e569f40d0037df2e1299616ae060405160405180910390a1565b6000809054906101000a900473ffffffffffffffffffffffffffffffffffffffff1673ffffffffffffffffffffffffffffffffffffffff163373ffffffffffffffffffffffffffffffffffffffff161415156108db576040517f08c379a00000000000000000000000000000000000000000000000000000000081526004018080602001828103825260148152602001807f4163636f756e74206973206e6f74206f776e657200000000000000000000000081525060200191505060405180910390fd5b6108e56000610c48565b7f508560e15717a4e9058b9a19d806cb679004a1bd953376f71fda71c141e5dc5360405160405180910390a1565b600160009054906101000a900473ffffffffffffffffffffffffffffffffffffffff1681565b6000809054906101000a900473ffffffffffffffffffffffffffffffffffffffff1673ffffffffffffffffffffffffffffffffffffffff163373ffffffffffffffffffffffffffffffffffffffff161415156109fd576040517f08c379a00000000000000000000000000000000000000000000000000000000081526004018080602001828103825260148152602001807f4163636f756e74206973206e6f74206f776e657200000000000000000000000081525060200191505060405180910390fd5b6001600260008373ffffffffffffffffffffffffffffffffffffffff1673ffffffffffffffffffffffffffffffffffffffff16815260200190815260200160002060006101000a81548160ff0219169083151502179055508073ffffffffffffffffffffffffffffffffffffffff167f75b2135d1c8c3519f3c09c43fe6527089ef09f40c7981ebf0ed46e79e79032c760405160405180910390a250565b6000809054906101000a900473ffffffffffffffffffffffffffffffffffffffff1673ffffffffffffffffffffffffffffffffffffffff163373ffffffffffffffffffffffffffffffffffffffff16141515610b5f576040517f08c379a00000000000000000000000000000000000000000000000000000000081526004018080602001828103825260148152602001807f4163636f756e74206973206e6f74206f776e657200000000000000000000000081525060200191505060405180910390fd5b600073ffffffffffffffffffffffffffffffffffffffff168173ffffffffffffffffffffffffffffffffffffffff1614151515610c04576040517f08c379a000000000000000000000000000000000000000000000000000000000815260040180806020018281038252600d8152602001807f456d70747920616464726573730000000000000000000000000000000000000081525060200191505060405180910390fd5b80600160006101000a81548173ffffffffffffffffffffffffffffffffffffffff021916908373ffffffffffffffffffffffffffffffffffffffff16021790555050565b600080604051602001808060200180602001838103835260098152602001807f57686974656c69737400000000000000000000000000000000000000000000008152506020018381038252600b8152602001807f77686974656c6973746564000000000000000000000000000000000000000000815250602001925050506040516020818303038152906040526040518082805190602001908083835b602083101515610d0a5780518252602082019150602081019050602083039250610ce5565b6001836020036101000a0380198251168184511680821785525050505050509050019150506040518091039020915082610d45576000610d48565b60015b60ff1690508082555050505600a165627a7a72305820c2da6b101aa9ca4d0c8e65d9898fa21197177d0c22a75e88c05b79dc46f843a20029",
  "source": "pragma solidity ^0.4.24;\n\n\nimport \"./Ownable.sol\";\n/**\n * @title Whitelist\n * @dev Base contract which allows children to implement an emergency whitelist mechanism. Identical to OpenZeppelin version\n * except that it uses local Ownable contract\n */\n \ncontract Whitelist is Ownable {\n    event AddToWhitelist(address indexed to);\n    event RemoveFromWhitelist(address indexed to);\n    event EnableWhitelist();\n    event DisableWhitelist();\n\n    mapping(address => bool) whitelist;\n\n    /**\n    * @dev Modifier to make a function callable only when msg.sender is in whitelist.\n    */\n    modifier onlyWhitelist() {\n        if (isWhitelisted() == true) {\n            require(whitelist[msg.sender] == true, \"Address is not in whitelist\");\n        }\n        _;\n    }\n\n   /**\n    * @dev called by the owner to enable whitelist\n    */\n\n    function enableWhitelist() public onlyOwner {\n        setWhitelisted(true);\n        emit EnableWhitelist();\n    }\n\n\n    /**\n    * @dev called by the owner to disable whitelist\n    */\n    function disableWhitelist() public onlyOwner {\n        setWhitelisted(false);\n        emit DisableWhitelist();\n    }\n\n    /**\n    * @dev called by the owner to enable some address for whitelist\n    */\n    function addToWhitelist(address _address) public onlyOwner  {\n        whitelist[_address] = true;\n        emit AddToWhitelist(_address);\n    }\n\n    /**\n    * @dev called by the owner to disable address for whitelist\n    */\n    function removeFromWhitelist(address _address) public onlyOwner {\n        whitelist[_address] = false;\n        emit RemoveFromWhitelist(_address);\n    }\n\n\n    // bool public whitelisted = false;\n\n    function setWhitelisted(bool value) internal {\n        bytes32 slot = keccak256(abi.encode(\"Whitelist\", \"whitelisted\"));\n        uint256 v = value ? 1 : 0;\n        assembly {\n            sstore(slot, v)\n        }\n    }\n\n    function isWhitelisted() public view returns (bool) {\n        bytes32 slot = keccak256(abi.encode(\"Whitelist\", \"whitelisted\"));\n        uint256 v;\n        assembly {\n            v := sload(slot)\n        }\n        return v != 0;\n    }\n}",
  "sourcePath": "/Users/alexandermazaletskiy/Documents/Akropolis/UpgradeableERC20/contracts/helpers/Whitelist.sol",
  "compiler": {
    "name": "solc",
    "version": "0.4.24+commit.e67f0147.Emscripten.clang"
  },
  "schemaVersion": "2.0.1",
  "updatedAt": "2019-01-07T10:40:06.727Z"
}