{
  "contractName": "Whitelist",
  "abi": [
    {
      "constant": false,
      "inputs": [],
      "name": "claimOwnership",
      "outputs": [],
      "payable": false,
      "stateMutability": "nonpayable",
      "type": "function"
    },
    {
      "constant": true,
      "inputs": [],
      "name": "owner",
      "outputs": [
        {
          "name": "",
          "type": "address"
        }
      ],
      "payable": false,
      "stateMutability": "view",
      "type": "function"
    },
    {
      "constant": true,
      "inputs": [],
      "name": "pendingOwner",
      "outputs": [
        {
          "name": "",
          "type": "address"
        }
      ],
      "payable": false,
      "stateMutability": "view",
      "type": "function"
    },
    {
      "constant": false,
      "inputs": [
        {
          "name": "_newOwner",
          "type": "address"
        }
      ],
      "name": "transferOwnership",
      "outputs": [],
      "payable": false,
      "stateMutability": "nonpayable",
      "type": "function"
    },
    {
      "anonymous": false,
      "inputs": [
        {
          "indexed": true,
          "name": "to",
          "type": "address"
        }
      ],
      "name": "AddToWhitelist",
      "type": "event"
    },
    {
      "anonymous": false,
      "inputs": [
        {
          "indexed": true,
          "name": "to",
          "type": "address"
        }
      ],
      "name": "RemoveFromWhitelist",
      "type": "event"
    },
    {
      "anonymous": false,
      "inputs": [],
      "name": "EnableWhitelist",
      "type": "event"
    },
    {
      "anonymous": false,
      "inputs": [],
      "name": "DisableWhitelist",
      "type": "event"
    },
    {
      "anonymous": false,
      "inputs": [
        {
          "indexed": true,
          "name": "to",
          "type": "address"
        },
        {
          "indexed": false,
          "name": "balance",
          "type": "uint256"
        }
      ],
      "name": "AddPermBalanceToWhitelist",
      "type": "event"
    },
    {
      "anonymous": false,
      "inputs": [
        {
          "indexed": true,
          "name": "to",
          "type": "address"
        }
      ],
      "name": "RemovePermBalanceToWhitelist",
      "type": "event"
    },
    {
      "anonymous": false,
      "inputs": [
        {
          "indexed": true,
          "name": "previousOwner",
          "type": "address"
        },
        {
          "indexed": true,
          "name": "newOwner",
          "type": "address"
        }
      ],
      "name": "OwnershipTransferred",
      "type": "event"
    },
    {
      "constant": false,
      "inputs": [
        {
          "name": "_owner",
          "type": "address"
        },
        {
          "name": "_balance",
          "type": "uint256"
        }
      ],
      "name": "addPermBalanceToWhitelist",
      "outputs": [],
      "payable": false,
      "stateMutability": "nonpayable",
      "type": "function"
    },
    {
      "constant": false,
      "inputs": [
        {
          "name": "_owner",
          "type": "address"
        }
      ],
      "name": "removePermBalanceToWhitelist",
      "outputs": [],
      "payable": false,
      "stateMutability": "nonpayable",
      "type": "function"
    },
    {
      "constant": false,
      "inputs": [],
      "name": "enableWhitelist",
      "outputs": [],
      "payable": false,
      "stateMutability": "nonpayable",
      "type": "function"
    },
    {
      "constant": false,
      "inputs": [],
      "name": "disableWhitelist",
      "outputs": [],
      "payable": false,
      "stateMutability": "nonpayable",
      "type": "function"
    },
    {
      "constant": false,
      "inputs": [
        {
          "name": "_address",
          "type": "address"
        }
      ],
      "name": "addToWhitelist",
      "outputs": [],
      "payable": false,
      "stateMutability": "nonpayable",
      "type": "function"
    },
    {
      "constant": false,
      "inputs": [
        {
          "name": "_address",
          "type": "address"
        }
      ],
      "name": "removeFromWhitelist",
      "outputs": [],
      "payable": false,
      "stateMutability": "nonpayable",
      "type": "function"
    },
    {
      "constant": true,
      "inputs": [],
      "name": "isWhitelisted",
      "outputs": [
        {
          "name": "",
          "type": "bool"
        }
      ],
      "payable": false,
      "stateMutability": "view",
      "type": "function"
    }
  ],
  "bytecode": "0x6080604052336000806101000a81548173ffffffffffffffffffffffffffffffffffffffff021916908373ffffffffffffffffffffffffffffffffffffffff1602179055506000600160006101000a81548173ffffffffffffffffffffffffffffffffffffffff021916908373ffffffffffffffffffffffffffffffffffffffff1602179055506110d0806100956000396000f3006080604052600436106100af576000357c0100000000000000000000000000000000000000000000000000000000900463ffffffff1680631ff73a3a146100b45780634e71e0c8146100f7578063611b40951461010e5780638ab1d6811461013d5780638da5cb5b14610180578063af9a44fb146101d7578063cdfb2b4e14610224578063d6b0f4841461023b578063e30c397814610252578063e43252d7146102a9578063f2fde38b146102ec575b600080fd5b3480156100c057600080fd5b506100f5600480360381019080803573ffffffffffffffffffffffffffffffffffffffff16906020019092919050505061032f565b005b34801561010357600080fd5b5061010c61047e565b005b34801561011a57600080fd5b50610123610686565b604051808215151515815260200191505060405180910390f35b34801561014957600080fd5b5061017e600480360381019080803573ffffffffffffffffffffffffffffffffffffffff169060200190929190505050610789565b005b34801561018c57600080fd5b506101956108eb565b604051808273ffffffffffffffffffffffffffffffffffffffff1673ffffffffffffffffffffffffffffffffffffffff16815260200191505060405180910390f35b3480156101e357600080fd5b50610222600480360381019080803573ffffffffffffffffffffffffffffffffffffffff16906020019092919080359060200190929190505050610910565b005b34801561023057600080fd5b50610239610a6a565b005b34801561024757600080fd5b50610250610b66565b005b34801561025e57600080fd5b50610267610c62565b604051808273ffffffffffffffffffffffffffffffffffffffff1673ffffffffffffffffffffffffffffffffffffffff16815260200191505060405180910390f35b3480156102b557600080fd5b506102ea600480360381019080803573ffffffffffffffffffffffffffffffffffffffff169060200190929190505050610c88565b005b3480156102f857600080fd5b5061032d600480360381019080803573ffffffffffffffffffffffffffffffffffffffff169060200190929190505050610dea565b005b6000809054906101000a900473ffffffffffffffffffffffffffffffffffffffff1673ffffffffffffffffffffffffffffffffffffffff163373ffffffffffffffffffffffffffffffffffffffff161415156103f3576040517f08c379a00000000000000000000000000000000000000000000000000000000081526004018080602001828103825260148152602001807f4163636f756e74206973206e6f74206f776e657200000000000000000000000081525060200191505060405180910390fd5b6000600360008373ffffffffffffffffffffffffffffffffffffffff1673ffffffffffffffffffffffffffffffffffffffff168152602001908152602001600020819055508073ffffffffffffffffffffffffffffffffffffffff167f759651cadbda1c3d37d7e0859e4202ef5fc1a137826766a53f792e8861d4fe7960405160405180910390a250565b600160009054906101000a900473ffffffffffffffffffffffffffffffffffffffff1673ffffffffffffffffffffffffffffffffffffffff163373ffffffffffffffffffffffffffffffffffffffff16141515610543576040517f08c379a000000000000000000000000000000000000000000000000000000000815260040180806020018281038252601c8152602001807f4163636f756e74206973206e6f742070656e64696e67206f776e65720000000081525060200191505060405180910390fd5b600160009054906101000a900473ffffffffffffffffffffffffffffffffffffffff1673ffffffffffffffffffffffffffffffffffffffff166000809054906101000a900473ffffffffffffffffffffffffffffffffffffffff1673ffffffffffffffffffffffffffffffffffffffff167f8be0079c531659141344cd1fd0a4f28419497f9722a3daafe3b4186f6b6457e060405160405180910390a3600160009054906101000a900473ffffffffffffffffffffffffffffffffffffffff166000806101000a81548173ffffffffffffffffffffffffffffffffffffffff021916908373ffffffffffffffffffffffffffffffffffffffff1602179055506000600160006101000a81548173ffffffffffffffffffffffffffffffffffffffff021916908373ffffffffffffffffffffffffffffffffffffffff160217905550565b6000806000604051602001808060200180602001838103835260098152602001807f57686974656c69737400000000000000000000000000000000000000000000008152506020018381038252600b8152602001807f77686974656c6973746564000000000000000000000000000000000000000000815250602001925050506040516020818303038152906040526040518082805190602001908083835b60208310151561074a5780518252602082019150602081019050602083039250610725565b6001836020036101000a038019825116818451168082178552505050505050905001915050604051809103902091508154905060008114159250505090565b6000809054906101000a900473ffffffffffffffffffffffffffffffffffffffff1673ffffffffffffffffffffffffffffffffffffffff163373ffffffffffffffffffffffffffffffffffffffff1614151561084d576040517f08c379a00000000000000000000000000000000000000000000000000000000081526004018080602001828103825260148152602001807f4163636f756e74206973206e6f74206f776e657200000000000000000000000081525060200191505060405180910390fd5b6000600260008373ffffffffffffffffffffffffffffffffffffffff1673ffffffffffffffffffffffffffffffffffffffff16815260200190815260200160002060006101000a81548160ff0219169083151502179055508073ffffffffffffffffffffffffffffffffffffffff167f1f756c8b089af6b33ee121fee8badac2553a2fa89c0575ea91ff8792617746c260405160405180910390a250565b6000809054906101000a900473ffffffffffffffffffffffffffffffffffffffff1681565b6000809054906101000a900473ffffffffffffffffffffffffffffffffffffffff1673ffffffffffffffffffffffffffffffffffffffff163373ffffffffffffffffffffffffffffffffffffffff161415156109d4576040517f08c379a00000000000000000000000000000000000000000000000000000000081526004018080602001828103825260148152602001807f4163636f756e74206973206e6f74206f776e657200000000000000000000000081525060200191505060405180910390fd5b80600360008473ffffffffffffffffffffffffffffffffffffffff1673ffffffffffffffffffffffffffffffffffffffff168152602001908152602001600020819055508173ffffffffffffffffffffffffffffffffffffffff167f016d5d542a2fe3c28ea92e677973e25f991c24c755c1e69fe3090a7fb2a9e8ca826040518082815260200191505060405180910390a25050565b6000809054906101000a900473ffffffffffffffffffffffffffffffffffffffff1673ffffffffffffffffffffffffffffffffffffffff163373ffffffffffffffffffffffffffffffffffffffff16141515610b2e576040517f08c379a00000000000000000000000000000000000000000000000000000000081526004018080602001828103825260148152602001807f4163636f756e74206973206e6f74206f776e657200000000000000000000000081525060200191505060405180910390fd5b610b386001610f97565b7fa2927d972f7cfc5ff8b7ad79f9adf0bdb885d0e569f40d0037df2e1299616ae060405160405180910390a1565b6000809054906101000a900473ffffffffffffffffffffffffffffffffffffffff1673ffffffffffffffffffffffffffffffffffffffff163373ffffffffffffffffffffffffffffffffffffffff16141515610c2a576040517f08c379a00000000000000000000000000000000000000000000000000000000081526004018080602001828103825260148152602001807f4163636f756e74206973206e6f74206f776e657200000000000000000000000081525060200191505060405180910390fd5b610c346000610f97565b7f508560e15717a4e9058b9a19d806cb679004a1bd953376f71fda71c141e5dc5360405160405180910390a1565b600160009054906101000a900473ffffffffffffffffffffffffffffffffffffffff1681565b6000809054906101000a900473ffffffffffffffffffffffffffffffffffffffff1673ffffffffffffffffffffffffffffffffffffffff163373ffffffffffffffffffffffffffffffffffffffff16141515610d4c576040517f08c379a00000000000000000000000000000000000000000000000000000000081526004018080602001828103825260148152602001807f4163636f756e74206973206e6f74206f776e657200000000000000000000000081525060200191505060405180910390fd5b6001600260008373ffffffffffffffffffffffffffffffffffffffff1673ffffffffffffffffffffffffffffffffffffffff16815260200190815260200160002060006101000a81548160ff0219169083151502179055508073ffffffffffffffffffffffffffffffffffffffff167f75b2135d1c8c3519f3c09c43fe6527089ef09f40c7981ebf0ed46e79e79032c760405160405180910390a250565b6000809054906101000a900473ffffffffffffffffffffffffffffffffffffffff1673ffffffffffffffffffffffffffffffffffffffff163373ffffffffffffffffffffffffffffffffffffffff16141515610eae576040517f08c379a00000000000000000000000000000000000000000000000000000000081526004018080602001828103825260148152602001807f4163636f756e74206973206e6f74206f776e657200000000000000000000000081525060200191505060405180910390fd5b600073ffffffffffffffffffffffffffffffffffffffff168173ffffffffffffffffffffffffffffffffffffffff1614151515610f53576040517f08c379a000000000000000000000000000000000000000000000000000000000815260040180806020018281038252600d8152602001807f456d70747920616464726573730000000000000000000000000000000000000081525060200191505060405180910390fd5b80600160006101000a81548173ffffffffffffffffffffffffffffffffffffffff021916908373ffffffffffffffffffffffffffffffffffffffff16021790555050565b600080604051602001808060200180602001838103835260098152602001807f57686974656c69737400000000000000000000000000000000000000000000008152506020018381038252600b8152602001807f77686974656c6973746564000000000000000000000000000000000000000000815250602001925050506040516020818303038152906040526040518082805190602001908083835b6020831015156110595780518252602082019150602081019050602083039250611034565b6001836020036101000a0380198251168184511680821785525050505050509050019150506040518091039020915082611094576000611097565b60015b60ff1690508082555050505600a165627a7a72305820cf4046e594524a3b1895366893f0406cb30f2bc61a5ceb90c4557ba3a7e277560029",
  "source": "pragma solidity ^0.4.24;\n\n\nimport \"./Ownable.sol\";\n/**\n * @title Whitelist\n * @dev Base contract which allows children to implement an emergency whitelist mechanism. Identical to OpenZeppelin version\n * except that it uses local Ownable contract\n */\n \ncontract Whitelist is Ownable {\n    event AddToWhitelist(address indexed to);\n    event RemoveFromWhitelist(address indexed to);\n    event EnableWhitelist();\n    event DisableWhitelist();\n    event AddPermBalanceToWhitelist(address indexed to, uint256 balance);\n    event RemovePermBalanceToWhitelist(address indexed to);\n\n    mapping(address => bool) internal whitelist;\n    mapping (address => uint256) internal permBalancesForWhitelist;\n\n    /**\n    * @dev Modifier to make a function callable only when msg.sender is in whitelist.\n    */\n    modifier onlyWhitelist() {\n        if (isWhitelisted() == true) {\n            require(whitelist[msg.sender] == true, \"Address is not in whitelist\");\n        }\n        _;\n    }\n\n    modifier checkPermBalanceForWhitelist(uint256 value) {\n        require(permBalancesForWhitelist[msg.sender]==0 || permBalancesForWhitelist[msg.sender]<=value, \"Not permitted balance for transfer\");\n        _;\n    }\n\n    function addPermBalanceToWhitelist(address _owner, uint256 _balance) public onlyOwner {\n        permBalancesForWhitelist[_owner] = _balance;\n        emit AddPermBalanceToWhitelist(_owner, _balance);\n    }\n\n    function removePermBalanceToWhitelist(address _owner) public onlyOwner {\n        permBalancesForWhitelist[_owner] = 0;\n        emit RemovePermBalanceToWhitelist(_owner);\n    }\n   \n    /**\n    * @dev called by the owner to enable whitelist\n    */\n\n    function enableWhitelist() public onlyOwner {\n        setWhitelisted(true);\n        emit EnableWhitelist();\n    }\n\n\n    /**\n    * @dev called by the owner to disable whitelist\n    */\n    function disableWhitelist() public onlyOwner {\n        setWhitelisted(false);\n        emit DisableWhitelist();\n    }\n\n    /**\n    * @dev called by the owner to enable some address for whitelist\n    */\n    function addToWhitelist(address _address) public onlyOwner  {\n        whitelist[_address] = true;\n        emit AddToWhitelist(_address);\n    }\n\n    /**\n    * @dev called by the owner to disable address for whitelist\n    */\n    function removeFromWhitelist(address _address) public onlyOwner {\n        whitelist[_address] = false;\n        emit RemoveFromWhitelist(_address);\n    }\n\n\n    // bool public whitelisted = false;\n\n    function setWhitelisted(bool value) internal {\n        bytes32 slot = keccak256(abi.encode(\"Whitelist\", \"whitelisted\"));\n        uint256 v = value ? 1 : 0;\n        assembly {\n            sstore(slot, v)\n        }\n    }\n\n    function isWhitelisted() public view returns (bool) {\n        bytes32 slot = keccak256(abi.encode(\"Whitelist\", \"whitelisted\"));\n        uint256 v;\n        assembly {\n            v := sload(slot)\n        }\n        return v != 0;\n    }\n}",
  "sourcePath": "/Users/alexandermazaletskiy/Documents/Akropolis/UpgradeableERC20/contracts/helpers/Whitelist.sol",
  "compiler": {
    "name": "solc",
    "version": "0.4.24+commit.e67f0147.Emscripten.clang"
  },
  "schemaVersion": "2.0.1",
  "updatedAt": "2019-01-07T11:19:30.463Z"
}